:100000000C9449000C9473000C9473000C947300CE
:100010000C9473000C9473000C9473000C94730094
:100020000C9473000C9473000C9473000C94730084
:100030000C9473000C9473000C9473000C94730074
:100040000C9473000C9473000C9456010C94730080
:100050000C9473000C9473000C9473000C94730054
:100060000C9473000C9473000C9473000C94730044
:100070000C94D2010C9408020C9473000C9473003D
:100080000C9473000C9473000C947300DC003C021D
:10009000E20011241FBECFEFD0E4DEBFCDBF11E0E0
:1000A000A0E0B1E0E2E8F9E000E00BBF02C0079099
:1000B0000D92AE31B107D9F722E0AEE1B1E001C057
:1000C0001D92AA30B207E1F710E0C8E4D0E004C006
:1000D0002197FE010E948603C634D107C9F70E940A
:1000E0006A020C94B4040C9400001092C50083E3DF
:1000F0008093C40088E18093C10086E08093C200B1
:10010000089584B1836084B9289A0E9475002FEF06
:1001100084E39CE0215080409040E1F700C0000063
:10012000289808958091C00087FFFCCF8091C60079
:1001300008959091C00095FD02C0289AFACF80934F
:10014000C6000895DF92EF92FF920F931F93CF9313
:10015000DF9300D000D000D0CDB7DEB786E0E6E078
:10016000F1E0DE01119601900D928A95E1F70E946F
:100170009200823499F48E010F5F1F4F7E0187E059
:10018000E80EF11C82E0D82EF80181918F010E94C7
:100190009900D5B80E151F05B9F715B826960FB6F4
:1001A000F894DEBF0FBECDBFDF91CF911F910F91AD
:1001B000FF90EF90DF90089569E671E08EE191E0A5
:1001C0000C94FB008EE191E00C944701CF93DF93F8
:1001D000EC01CB01798368830E948F039B838A8320
:1001E000DF91CF910895FC0182819381009711F0F6
:1001F0000C942B040895CF93DF93EC0179836883EB
:100200001B821A821D821C8260E071E006960E94A9
:10021000E600888599859B878A871C861D861E86B1
:10022000188A1F861A8A198A1B8A1D8A1C8A1E8AA6
:100230001F8A188E198E1A8E1B8E1C8E1D8E1E8E76
:100240001F8E18A219A21AA21CA21BA21DA21EA2D6
:100250001FA218A61AA619A61BA61CA61DA61EA696
:1002600018AA1FA619AA1AAA1BAA1CAA1EAA1DAA66
:1002700018AE1FAA19AE1BAE1AAE1DAE1CAEEE967E
:10028000188219821A821B82DF91CF910895CF9331
:10029000DF93EC018CAD9DAD009711F00E942B0413
:1002A000CE010696DF91CF910C94F3001F920F922E
:1002B0000FB60F9211242F933F938F939F93AF9379
:1002C000BF938091610190916201A0916301B0910F
:1002D00064013091600126E0230F2D3758F5029616
:1002E000A11DB11D20936001809361019093620173
:1002F000A0936301B09364018091650190916601C0
:10030000A0916701B09168010196A11DB11D809374
:10031000650190936601A0936701B0936801BF9156
:10032000AF919F918F913F912F910F900FBE0F90A2
:100330001F90189529E8230F0396A11DB11DD2CF58
:10034000789484B5836084BD85B5836085BDEEE611
:10035000F0E0808181608083E1E8F0E082E08083EA
:10036000808181608083E0E8F0E08081816080832B
:10037000E1EBF0E0808184608083E0EBF0E080815D
:1003800081608083E1E9F0E0808183608083E0E93F
:10039000F0E080818160808386E880937A0010920B
:1003A000C10008951F920F920FB60F9211240BB641
:1003B0000F922F938F939F93EF93FF93E091790187
:1003C000F0917A018081E0917F01F091800182FDBE
:1003D0001DC09081809182018F5F8F732091830176
:1003E000821741F0E0918201F0E0E759FE4F958FCE
:1003F00080938201FF91EF919F918F912F910F90A8
:100400000BBE0F900FBE0F901F9018958081F2CFFA
:100410001F920F920FB60F9211240BB60F922F93CB
:100420003F934F935F936F937F938F939F93AF937C
:10043000BF93EF93FF9389E691E00E94D102FF9171
:10044000EF91BF91AF919F918F917F916F915F914C
:100450004F913F912F910F900BBE0F900FBE0F90B9
:100460001F90189589E691E00E94790221E0892B7E
:1004700009F420E0822F0895E9E6F1E01382128268
:1004800088EE93E0A0E0B0E084839583A683B783F1
:1004900080E191E0918380838DEC90E09587848763
:1004A0008CEC90E09787868788EC90E0918B808B2E
:1004B00089EC90E0938B828B8AEC90E0958B848B17
:1004C0008EEC90E0978B868B118E128E138E148E8D
:1004D000089508950E94A0010E9469020E9481006F
:1004E000C6EBD2E00E94A2002097E1F30E94B60280
:1004F000F9CFFC01918D228D892F90E0805C9F4F78
:10050000821B91098F7399270895FC01918D828D2B
:10051000981731F0828DE80FF11D858D90E00895D8
:100520008FEF9FEF0895FC01918D828D981761F0F8
:10053000A28DAE0FBF2FB11D5D968C91928D9F5FE6
:100540009F73928F90E008958FEF9FEF0895FC01C5
:10055000538D448D252F30E0842F90E0821B930B28
:10056000541710F0CF9608950197089580E090E019
:10057000892B49F080E090E0892B29F00E9400004F
:1005800081110E94000082E392E0892B49F080E013
:1005900090E0892B29F00E94320281110C94000016
:1005A0000895FC01A48DA80FB92FB11DA35ABF4F08
:1005B0002C91848D90E001968F739927848FA68962
:1005C000B7892C93A089B1898C9180648C93938D89
:1005D000848D981306C00288F389E02D80818F7D79
:1005E00080830895CF93DF93EC01888D8823B9F041
:1005F000AA89BB89E889F9898C9185FD03C080812E
:1006000086FD0DC00FB607FCF7CF8C9185FFF2CFAA
:10061000808185FFEDCFCE010E94D102E9CFDF912D
:10062000CF910895EF92FF920F931F93CF93DF9393
:10063000EC0181E0888F9B8D8C8D981316C0E88922
:10064000F989808185FF11C0EE89FF896083E8897F
:10065000F98980818064808381E090E0DF91CF918F
:100660001F910F91FF90EF900895F62E0B8D10E0E3
:100670000F5F1F4F0F731127E02E8C8D8E110CC052
:100680000FB607FCFACFE889F989808185FFF5CF9D
:10069000CE010E94D102F1CFEB8DEC0FFD2FF11DA9
:1006A000E35AFF4FF0820B8FEA89FB8980818062D9
:1006B000D2CFAF92BF92CF92DF92EF92FF920F9381
:1006C0001F93CF93DF936C017B018B01040F151FE8
:1006D000EB015E01AE18BF08C017D10759F0699150
:1006E000D601ED91FC910190F081E02DC6010995B4
:1006F000892B79F7C501DF91CF911F910F91FF9061
:10070000EF90DF90CF90BF90AF900895EE0FFF1F56
:100710000024001C0BBE0790F691E02D09940F9366
:100720001F93CF93DF938230910510F482E090E025
:10073000E0910802F091090230E020E0B0E0A0E092
:10074000309799F42115310509F44AC0281B390B5B
:1007500024303105D8F58A819B816115710589F1B5
:10076000FB0193838283FE0111C04081518102818C
:10077000138148175907E0F04817590799F4109763
:1007800061F012960C93129713961C933296CF0138
:10079000DF91CF911F910F9108950093080210935C
:1007A0000902F4CF2115310551F04217530738F0F3
:1007B000A901DB019A01BD01DF01F801C1CFEF0101
:1007C000F9CF9093090280930802CDCFFE01E20F8A
:1007D000F31F819391932250310939832883D7CF16
:1007E0002091060230910702232B41F4209102014F
:1007F00030910301309307022093060220910001FB
:10080000309101012115310541F42DB73EB74091DA
:10081000040150910501241B350BE0910602F09173
:100820000702E217F307A0F42E1B3F0B2817390726
:1008300078F0AC014E5F5F4F2417350748F04E0F3C
:100840005F1F5093070240930602819391939FCFBD
:10085000F0E0E0E09CCFCF93DF930097E9F0FC015C
:10086000329713821282A0910802B0910902ED0121
:1008700030E020E01097A1F420813181820F931F96
:1008800020910602309107022817390709F061C04C
:10089000F0930702E0930602DF91CF910895EA01F9
:1008A000CE17DF07E8F54A815B819E0141155105AE
:1008B000B1F7E901FB83EA8349915991C40FD51F30
:1008C000EC17FD0761F4808191810296840F951FDA
:1008D000E90199838883828193819B838A83F0E0F5
:1008E000E0E012968D919C9113970097B9F52D91A8
:1008F0003C911197CD010296820F931F2091060221
:10090000309107022817390739F6309751F51092C0
:10091000090210920802B0930702A0930602BCCF0E
:10092000D383C28340815181840F951FC817D90793
:1009300061F44E5F5F4F88819981480F591F518341
:1009400040838A819B81938382832115310509F03D
:10095000B0CFF0930902E09308029ECFFD01DC01C5
:10096000C0CF13821282D7CF10E0C8E4D0E004C019
:10097000FE010E9486032196C934D107C9F7F89475
:02098000FFCFA7
:1009820000000A02800030313233342100000000BE
:0E09920012035903A702F202790293028502B2
:00000001FF
