:1000000045C0000062C0000060C000005EC000008B
:100010005CC000005AC0000058C0000056C000007C
:1000200054C0000052C0000050C000004EC000008C
:100030004CC000004AC0000048C0000046C000009C
:1000400044C0000042C0000040C000003EC00000AC
:100050003CC000003AC0000038C0000036C00000BC
:1000600034C0000032C0000030C000002EC00000CC
:100070002CC000002AC0000028C0000026C00000DC
:1000800024C0000022C0000020C0000011241FBEB8
:10009000CFEFD0E4DEBFCDBF11E0A0E0B1E0EEE9EC
:1000A000F9E200E00BBF02C007900D92AE32B1073B
:1000B000D9F725E0AEE2B1E001C01D92A63BB20740
:1000C000E1F70E9483140C94CD149ACF8EBD0DB429
:1000D00007FEFDCF8EB5089582E380932F018FEF49
:1000E000F5DF8F3F21F090912F019111F8CF21E0A2
:1000F00030E08F3F11F020E030E0C90108952C9AE4
:100100008FEFE4CF08950F931F93CF93DF93082FC2
:10011000192FEB0184E1809330018FEFD7DF8F3F00
:1001200039F4809130018111F8CF80E090E020C057
:100130008E3FE1F4E02FF12F8FEF8EBD0DB407FE5F
:10014000FDCF9EB5DF0190838EBD0DB407FEFDCFC0
:100150009EB511969C9322973296209771F78FEF58
:10016000B5DF8FEFB3DF81E090E002C080E090E088
:10017000DF91CF911F910F9108951F93CF93DF933C
:10018000EC01162FA9DF009741F1812F9FDF1D3F62
:1001900011F1FE019E013E5FDF0190819EBD0DB415
:1001A00007FEFDCF11969C919EBD0DB407FEFDCFBD
:1001B0003296E217F30781F78FEF88DF8FEF86DF44
:1001C0008FEF84DF8F7131E020E0853009F030E07F
:1001D000832F922F02C081E090E0DF91CF911F9199
:1001E0000895FF920F931F93CF93DF93C82FD42FBF
:1001F000152F062FF72E882344F440E050E0BA0173
:1002000087E3EFDF823078F5CF7779DF2C988FEFB7
:100210005DDF62DF892B99F472DF8FEF24C0C83075
:10022000E1F081E053DFCC3011F48FEF4FDFCAE013
:100230008FEF4CDF8823BCF4C150D1F714C08C2F52
:10024000806444DF8F2D42DF802F40DF812F3EDF2F
:100250008D2F3CDFCC2321F0E2CF87E837DFE7CFDB
:1002600085E934DFE4CFDF91CF911F910F91FF90AB
:10027000089585B1806385B984B1806B84B981E5C7
:100280008CBD0895811103C080910001089581E023
:100290000895CF92DF92EF92FF920F931F93CF9327
:1002A000DF9300D000D0CDB7DEB781118BC0E1DF86
:1002B00082E58CBD1AE08FEF09DF1150E1F740E0D5
:1002C00050E0BA0180E08DDF813009F082C084E621
:1002D000809330014AEA51E060E070E088E081DF1D
:1002E000813009F03DC0CE0101966C017E0195E0A0
:1002F000E90EF11C86018FEFE9DEF80181938F0191
:10030000EE16FF06C1F78B81813009F062C08C8147
:100310008A3A09F05EC080913001882341F040E0C4
:1003200050E060E070E489EA5CDF8111F4CF8091F5
:100330003001882309F44DC040E050E0BA018AE35F
:1003400050DF811146C08FEFC1DEF60181936F014E
:10035000EE15FF05C1F7898186FD36C084E035C002
:1003600040E050E0BA0189EA3CDF823018F001E059
:1003700011E002C002E019EA80913001882339F0CF
:1003800040E050E0BA01812F2CDF8111F5CF809140
:1003900030018823F1F040E052E060E070E080E15D
:1003A00020DF811116C000932E01A9DE002339F051
:1003B000809100018E7F8093000180E58CBD80914B
:1003C00000010BC081E009C08CE080932E0197DE14
:1003D000EFCF10922E0193DEF2CF0F900F900F907F
:1003E0000F90DF91CF911F910F91FF90EF90DF90D1
:1003F000CF9008950F931F93CF93DF93EB0181115B
:1004000045C00115110509F443C08091000180FD2C
:1004100041C080912E0183FD09C0012E19E0220FF9
:10042000331F441F551F1A95D1F7102D01301105A8
:1004300091F4BA01A90181E1D4DE811121C060E00B
:1004400072E0CE0160DE31E020E0892B09F030E07F
:10045000032F122F15C0BA01A90182E1C2DE81115A
:100460000FC060E072E0CE014EDE892B21F0DE5F2E
:1004700001501109B1F740E050E0BA018CE0B1DE63
:100480003EDE81E0012B39F480E005C084E003C04A
:1004900084E001C083E0DF91CF911F910F91089517
:1004A000CF92DF92EF92FF920F931F93CF93DF9340
:1004B000EB0169017A01811151C00115110509F49F
:1004C0004FC08091000180FD4DC08091000182FDF0
:1004D0004BC080912E0183FD09C00B2EB9E0CC0CDE
:1004E000DD1CEE1CFF1CBA95D1F7B02D01301105B3
:1004F00089F4B701A60188E174DE811129C06EEF8D
:10050000CE013BDE31E020E0892B09F030E0032F03
:10051000122F1EC0867029F0A80160E070E087E904
:1005200060DEB701A60189E15CDE811111C06CEFCC
:10053000CE0123DE892B21F0DE5F01501109B9F7CE
:100540006DEF80E090E019DE892B11F401E010E0FE
:10055000D6DD81E0012B49F480E007C084E005C0CE
:1005600084E003C083E001C082E0DF91CF911F915E
:100570000F91FF90EF90DF90CF900895FC01638181
:10058000862F90E0A0E0B0E0BA2FA92F982F8827FF
:100590002281822BBA2FA92F982F88272181822B85
:1005A000BA2FA92F982F88272081BC01CD01622B5B
:1005B00008954115510551F0A62FB72FFC01480FA2
:1005C000591F9D919193E417F507D9F70895DC0120
:1005D000E62FF72F8D91219190E0821B91094150D8
:1005E000510911F00097B1F308950F931F93FC0187
:1005F0009A01AB012250310941095109838994893B
:10060000A589B6890297A109B109281739074A07B0
:100610005B0768F4A185B2850E94B41407A110A5F8
:1006200021A532A5600F711F821F931F03C060E0D8
:1006300070E0CB011F910F910895CF93DF93EC01F0
:10064000A881B9811097F1F09D012F5F3F4FF9010B
:1006500031979081913218F09A33B9F702C09A33EA
:10066000A1F48C9190ED980F9A3090F412962A177D
:100670003B0789F490E0C097181619067CF039837F
:1006800028830EC08FEF9FEF0BC080E090E008C082
:100690008FEF9FEF05C08FEF9FEF02C08FEF9FEFAF
:1006A000DF91CF9108950F931F93CF93DF93EC01C8
:1006B0008B01892BD9F0E881F9813097B9F08081DD
:1006C0008823A1F02A813B818581968128173907EB
:1006D00069F48181D7DD80FD09C004C0F801318350
:1006E000208308C02881398180E0F8CF89E020E0AC
:1006F00030E0F4CFDF91CF911F910F9108958F9249
:100700009F92AF92BF92EF92FF920F931F93CF935E
:10071000DF93FC0123812223C1F1EC017C01FFE284
:10072000EF0EF11C2BA53CA54DA55EA501E010E048
:10073000B7018981B5DE81112AC01B820BA51CA5DA
:100740002DA53EA58F89988DA98DBA8D8F8C98A0E7
:10075000A9A0BAA0B901A801481959096A097B09D9
:10076000481759076A077B07A0F46A81623099F439
:10077000A9019801280F391F4A1F5B1F01E010E0F3
:10078000B70189818DDE80E007C080E005C081E08F
:1007900003C080E001C080E0DF91CF911F910F91F5
:1007A000FF90EF90BF90AF909F908F9008958F92A1
:1007B0009F92AF92BF92FF920F931F93CF93DF93BD
:1007C000EC014A015B018BA59CA5ADA5BEA58417D4
:1007D0009507A607B707D9F0CE0191DFF82E811152
:1007E00017C001E010E0A5019401BE01615D7F4FDB
:1007F000898100DE882331F0FF24F39488248A94D1
:10080000982C54018BA69CA6ADA6BEA601C0F12CC7
:100810008F2DDF91CF911F910F91FF90BF90AF90DF
:100820009F908F9008958F929F92AF92BF92CF9298
:10083000DF92EF92FF920F931F93CF93DF937C0190
:100840004A015B015CDF811140C0B501A401C70111
:10085000CCDE4B015C01F70163A774A785A796A7BF
:100860006701FFE2CF0ED11CF601C701815D9D4FEC
:100870001192E817F907E1F7F70181859285892B35
:1008800059F4C0E0D0E018C02196F7018185928527
:10089000C817D90718F010C0C0E0D0E001E010E0A0
:1008A000A50194012C0F3D1F411D511DB601F701FB
:1008B0008181F6DD882341F381E0F70121853285CE
:1008C0002C173D0719F480E001C081E0DF91CF9142
:1008D0001F910F91FF90EF90DF90CF90BF90AF905E
:1008E0009F908F9008952F923F924F925F926F92B8
:1008F0007F928F929F92AF92BF92CF92DF92EF92B0
:10090000FF920F931F93CF93DF9342305105610500
:10091000710508F4CCC0FC01C388D488E588F6884A
:100920004C155D056E057F0508F0C3C0280139012F
:100930006A017B01EC018081823009F461C083305F
:1009400009F47EC0813009F0B6C05A01B694A7946C
:10095000A40EB51EC501892F99278695478D50A1F4
:1009600061A172A1480F591F611D711DCF011FDFC9
:10097000182F8111C0C01E01FFE22F0E311C45014E
:100980002FEF821A920A31E0B322F101EA0DFB1D2A
:10099000C0FE1DC08081282F2F7030E1439EC00112
:1009A0001124822B808381E08B834F8D58A169A114
:1009B0007AA1C401892F99278695480F591F611D77
:1009C000711DCE01F4DE882309F47BC076C040821D
:1009D00081E08B834F8D58A169A17AA1C401892F31
:1009E00099278695480F591F611D711DCE01DFDEC5
:1009F000882309F474C063C0408281E08B837BC08C
:100A0000452F562F672F7727878D90A1A1A1B2A1DF
:100A1000480F591F6A1F7B1FCF01C9DE182F811194
:100A20006AC0FE01BF96CC0CDD1CE894C0F881E0E2
:100A3000D822EC0DFD1D4082518281E08B835BC08A
:100A4000878D90A1A1A1B2A1689416F876956795BB
:100A5000579547951694D1F7480F591F6A1F7B1F6A
:100A6000CF01A5DE182F811146C0EFE07E22CE0116
:100A70008F96CC0CDD1CCC0CDD1CFCEFCF22F1E002
:100A8000DF22C80ED91EC60179DDDC01CB01882723
:100A90009927AA27B07F482A592A6A2A7B2AF60171
:100AA000408251826282738281E08B8324C012E093
:100AB00022C012E020C012E01EC0182F1CC0182F48
:100AC0001AC0F1E09F22F101E80DF91D689413F8B6
:100AD00076946794579447941694D1F78DCF21E07C
:100AE0009222F101E80DF91D9081907F852D8F7084
:100AF000492E482A81CF812FDF91CF911F910F91ED
:100B0000FF90EF90DF90CF90BF90AF909F908F902D
:100B10007F906F905F904F903F902F900895FB01D2
:100B2000228F338FDC018C91833029F4CA01AA27EC
:100B3000BB27848B958B0895AF92BF92CF92DF92A3
:100B4000EF92FF920F931F93CF93DF9342305105A3
:100B50006105710508F4A1C0FC01C081D1818B89B8
:100B60009C89AD89BE89481759076A077B0708F039
:100B700099C06A017B018881823009F44BC08330BF
:100B800009F469C0813009F092C08A011695079571
:100B9000040F151FC801892F992786954F8D58A1DD
:100BA00069A17AA1480F591F611D711DCE01FFDD9A
:100BB000811182C05801FFEFAF1ABF0A1170FE0108
:100BC000E00FF11F17A5C501892F992786954F8D35
:100BD00058A169A17AA1480F591F611D711DCE014D
:100BE000E6DD81116DC081E0B822CA0DDB1D8FA545
:100BF000612F70E0782BC0FE09C0729562956F700E
:100C000067277F70672780E090E065C07F7080E095
:100C100090E061C0452F562F672F77278F8D98A1C1
:100C2000A9A1BAA1480F591F6A1F7B1FCE01BFDDC2
:100C300081114AC0AF96A601440F551F4E7F5170D7
:100C4000C40FD51F698170E0762F66278881682BD5
:100C500080E090E040C08F8D98A1A9A1BAA16894CE
:100C600016F876956795579547951694D1F7480FDE
:100C7000591F6A1F7B1FCE019ADD811129C0AF96D3
:100C8000A601440F551F440F551FCA018C7F917058
:100C90008C0F9D1F73DC9F701EC061E070E080E0D0
:100CA00090E019C061E070E080E090E014C061E085
:100CB00070E080E090E00FC06FEF7FEFCB010BC0E2
:100CC0006FEF7FEFCB0107C06FEF7FEFCB0103C06A
:100CD0006FEF7FEFCB01DF91CF911F910F91FF90CD
:100CE000EF90DF90CF90BF90AF9008954F925F92BA
:100CF0006F927F928F929F92AF92BF92CF92DF922C
:100D0000EF92FF920F931F93CF93DF93EC016A0151
:100D10007B014115510580E26807710508F0B1C0FB
:100D2000DB01CA018F719927AA27BB27892B8A2B40
:100D30008B2B09F0A8C0088119814E875F87688BCB
:100D4000798B8E809F80A884B98481149104A1043A
:100D5000B10461F5F8018081833040F083A194A152
:100D6000A5A1B6A10097A105B105F1F4F80187810D
:100D70009085A0E0B0E0B701A601689414F87695DC
:100D80006795579547951694D1F7481759076A07FD
:100D90007B0708F07AC083A194A1A5A1B6A18E8B90
:100DA0009F8BA88FB98F44C04C015D01F80141842D
:100DB0005284612C712C032E39E0440C551C661CA6
:100DC000771C3A95D1F7302DC414D504E604F70406
:100DD00038F1B501A401CE01AFDE4B015C016F3FDC
:100DE0007F4F8F4F9F4F09F452C082E088169104C5
:100DF000A104B10408F44DC0F80183899489A58940
:100E0000B68988169906AA06BB0608F044C0C4181D
:100E1000D508E608F708C414D504E604F704C8F6B4
:100E2000B501A401C801E1DB6E8B7F8B888F998FA0
:100E30008A8A9B8AAC8ABD8A8E899F89A88DB98D42
:100E40000097A105B10549F1B701A601032E39E0CC
:100E500076956795579547953A95D1F7302D840F3C
:100E6000951FA61FB71F8E8B9F8BA88FB98F015D13
:100E70001F4FF1E0DF22C00ED11EDB8ECA8E80E054
:100E80000DC082E00BC082E009C082E007C081E0B3
:100E900005C082E003C082E001C082E0DF91CF9113
:100EA0001F910F91FF90EF90DF90CF90BF90AF9088
:100EB0009F908F907F906F905F904F9008954F928A
:100EC0005F926F927F928F929F92AF92BF92CF92DA
:100ED000DF92EF92FF920F931F93CF93DF938C01DA
:100EE0002A013B01FC01C081D181411551056105F9
:100EF0007105C9F48B849C84AD84BE8481149104F3
:100F0000A104B10409F41DC18B899C89AD89BE89F6
:100F100088169906AA06BB0608F417C1812C912CE5
:100F20005401839412C108DE623071058105910578
:100F300008F4CFC06F3FFFEF7F078F079F0709F4CB
:100F4000CDC0CB88DC88ED88FE886C157D058E05CC
:100F50009F0508F0E5C003C1730162012FEFC21ABB
:100F6000D20AE20AF20A8B899C89AD89BE89C81629
:100F7000D906EA06FB0628F0C12CD12C760168942C
:100F8000C1F8B701A601C801D7DD6130710581053F
:100F9000910509F4A7C06F3FEFEF7E078E079E070C
:100FA00009F4A5C0672B682B692BB1F08B849C8456
:100FB000AD84BE84F2E08F169104A104B10408F45C
:100FC000BAC08B899C89AD89BE8988169906AA0604
:100FD000BB0608F0B3C007C0C114D104E104F1049A
:100FE000C9F553014201750164012FEFC21AD20AFB
:100FF000E20AF20A8B899C89AD89BE89C816D90696
:10100000EA06FB0660F082E088169104A104B104B0
:1010100008F471C0C12CD12C76016894C1F8B701D5
:10102000A601C80189DD611571058105910591F061
:10103000613071058105910509F461C06F3F7F4FF3
:101040008F4F9F4F09F460C0C814D904EA04FB0411
:1010500061F65EC00FEF1FEF9801B701A601CE0148
:1010600042DC81112FC0411451046104710441F02C
:1010700097018601B301A201CE0135DC811122C0A6
:10108000CB86DC86ED86FE864F85588969897A890C
:101090008B899C89AD89BE890297A109B109841702
:1010A0009507A607B70740F041505109610971093A
:1010B0004F87588B698B7A8B8C8181608C83C701B9
:1010C000B6014DC0813041F161E070E080E090E018
:1010D00046C061E070E080E090E041C06FEF7FEFDC
:1010E000CB013DC061E070E080E090E038C06FEF80
:1010F0007FEFCB0134C060E070E0CB0130C061E035
:1011000070E080E090E02BC06FEF7FEFCB0127C055
:1011100060E070E0CB0123C06FEF7FEFCB011FC019
:101120006F85788989899A8961157105810591058D
:1011300009F012CF14C05301420155CF53014201AF
:1011400052CF812C912C540183946F8578898989A1
:101150009A89611571058105910509F044CFDF91E8
:10116000CF911F910F91FF90EF90DF90CF90BF90A4
:10117000AF909F908F907F906F905F904F90089569
:101180004F925F926F927F92AF92BF92CF92DF9217
:10119000EF92FF920F931F93CF93DF935C016A014D
:1011A0007B01B901A80122E0C216D104E104F104D7
:1011B00008F460C0FC01C081D1818B899C89AD8914
:1011C000BE89C816D906EA06FB0608F055C04115C7
:1011D00051056105710539F00FEF1FEF9801CE0140
:1011E00082DB811150C0B701A601C501A5DC2B012E
:1011F0003C01611571058105910509F43FC061301D
:10120000710581059105E1F16F3F7F4F8F4F9F4F32
:10121000C9F100E010E09801B701A601CE0163DB3F
:10122000811131C08F859889A989BA894B895C89D8
:101230006D897E896A017B01E2E0CE1AD108E1085E
:10124000F1088C159D05AE05BF0550F40196A11D52
:10125000B11D8F87988BA98BBA8B8C8181608C8311
:1012600073016201441655066606770608F4BBCF83
:1012700080E009C082E007C082E005C080E003C0D2
:1012800082E001C081E0DF91CF911F910F91FF902B
:10129000EF90DF90CF90BF90AF907F906F905F9076
:1012A0004F9008954F925F926F927F92AF92BF924C
:1012B000CF92DF92EF92FF920F931F93CF93DF9322
:1012C0008B01FC01C684D784E088F188F0E2CF0E60
:1012D000D11CE11CF11CC114D10420E2E206F1048E
:1012E00038F0FC01168A178A108E118E84E0C6C071
:1012F000FC0146895789608D718D41155105610545
:10130000710509F4AEC0EC01A080B180D701C6011F
:101310009170AA27BB27892B8A2B8B2B09F092C0AF
:101320004F5F5F4F6F4F7F4F468B578B608F718F33
:101330004289538964897589411551056105710593
:10134000D9F4F50187819085A0E0B0E0B701A6014E
:10135000689414F876956795579547951694D1F744
:10136000481759076A077B0708F46CC01E8A1F8A52
:10137000188E198E84E082C0F501818592850197CF
:10138000A0E0B0E026013701032E39E0769467949F
:10139000579447943A95D1F7302D84219521A62171
:1013A000B721892B8A2B8B2B09F04CC0CE01C4DBD3
:1013B0002B013C01623071058105910508F453C091
:1013C0006F3F7F4F8F4F9F4F09F44FC0F5018389C7
:1013D0009489A589B689481659066A067B0630F1B4
:1013E000012B31F41E8A1F8A188E198E84E046C0A4
:1013F0004A895B896C897D89CE0161DD2B013C01C5
:10140000611571058105910591F1613071058105C5
:10141000910579F16F3F2FEF72078207920759F11B
:10142000AB01BC01C501FFD9811127C04A8A5B8A83
:101430006C8A7D8AB301A201C501D7D86E8B7F8BE0
:10144000888F998FCE86DF86E88AF98A8FE2A80E88
:10145000B11CE1E0DE22CA0CDB1CDB8ECA8E80E010
:101460000DC084E00BC082E009C081E007C087E0C6
:1014700005C082E003C081E001C081E0DF91CF912F
:101480001F910F91FF90EF90DF90CF90BF90AF90A2
:101490007F906F905F904F900895EF92FF920F931F
:1014A0001F93CF938C01DC01ED90FC9040E050E065
:1014B000BA011CDCC82F81111BC0F801468957896D
:1014C000608D718DC70173D9C82F811111C0D801EA
:1014D0005A96ED91FC915B978081853E69F0882357
:1014E00059F061E070E0C801DDDEC82F882329F3E0
:1014F000C43029F1C11124C0F80146895789608D93
:10150000718DC70154D9C82F81111AC0D8015A96BC
:10151000ED91FC915B97CF0180961192E817F90746
:10152000E1F7B801645E7F4F4BE050E0F801828D37
:10153000938D3FD881E0D70113968C9301C0C7E00B
:101540008C2FCF911F910F91FF90EF900895CF9323
:10155000DF93EC011B828FEF9FEFDC018BA79CA731
:10156000ADA7BEA7CE0123D981112AC0FE01E25D3D
:10157000FD4F808190E0982F882731972081822B22
:1015800085359A4A01F58FA58B3E19F0885E823029
:10159000E8F443E050E063E071E0CE018B599F4FE7
:1015A00016D8892BB1F045E050E067E071E0CE013C
:1015B0008F579F4F0CD8892B79F082E090E00EC0B6
:1015C00084E090E00BC083E090E008C082E090E00F
:1015D00005C080E090E002C080E090E0DF91CF9114
:1015E00008952F923F924F925F926F927F928F92C7
:1015F0009F92AF92BF92CF92DF92EF92FF920F93A2
:101600001F93CF93DF93CDB7DEB76E970FB6F894E5
:10161000DEBF0FBECDBF6B01B42EDB011D921C924D
:101620000CD87C0199230CF467C2FC01EE0FFF1F5C
:10163000ED5CFE4F008111810115110509F45EC2B8
:10164000F60111830083FB2DFE7FBF2ED8018C9104
:10165000882369F011968C910E94420180FD07C099
:10166000BB2009F44DC282FF4DC28AE0F1C2F801ED
:101670001082E1828E2D0E94490180FD45C2BB206F
:1016800009F468C282FD42C240E050E0BA01C801DC
:101690005EDF82309105C1F54801FBE08F1AFEEF55
:1016A0009F0A9E012F5F3F4F79016E0131E1C30E0A
:1016B000D11C5701C4010E94BE02D5016D937D93D8
:1016C0008D939D935D01B0E18B0E911CAC14BD0414
:1016D00089F70F2EF3E0AF2EF02DB12CF7014191D9
:1016E0005191619171917F0141155105610571051C
:1016F00031F0C8012CDF8230910518F435C28A2DF3
:101700009B2DCE14DF0451F78430910509F400C2FB
:10171000029708F0FFC1D801DB968C91DB9790E02F
:10172000982F8827DA962C91822B8115924009F008
:10173000F3C1F801EA5BFF4F8080912C982C88243C
:1017400031978081882A940140E050E0298B3A8BC0
:101750004B8B5C8B232B242B252B49F4C8018D5AF2
:101760009F4F0E94BE02698B7A8B8B8B9C8BD8011A
:101770009B968D909D90AD90BC909E9729893A89BB
:101780004B895C8957962D933D934D935C935A9763
:10179000DF967C90DF9712967C9212978FEF870DE1
:1017A000823008F0BBC1DC963C90DC97832D90E042
:1017B0001A969C938E931997009709F4B1C19C01D6
:1017C0002150310982239323892B09F0ABC1F80101
:1017D000EF5BFF4F808190E0982F88273197208121
:1017E000FC01E22BFE8BED8B1896FC93EE93179782
:1017F000CF018F709927892B09F096C1F801ED5B15
:10180000FF4FC080D12CDC2CCC2431978081C82A9A
:10181000E12CF12CC114D104E104F10439F4C80124
:10182000815B9F4F0E94BE026B017C01D801DE9656
:10183000EC91DE97F0E0FE2FEE27DD968C91E82B01
:10184000309709F473C1A72DB0E029893A894B89F3
:101850005C890E94B4146B8F7C8F8D8F9E8F9F014B
:1018600040E050E02F8B388F498F5A8F8D899E89A9
:10187000929582958F7089279F708927280F391F2D
:10188000411D511D4B8C5C8C6D8C7E8C420E531E09
:10189000641E751EC414D504E604F70408F448C198
:1018A000C701B6016419750986099709232D30E02F
:1018B00040E050E00E949214DA01C901211531057F
:1018C0004105510509F436C1263F6FEF360746073B
:1018D0006FE0560730F40F2EF3E02F2E312CF02D51
:1018E00002C0212C312C863FEFEF9E07A105B105E8
:1018F00020F46894222421F8312C863F9F40A105D2
:10190000B10508F478C12114310409F415C1690145
:101910007A0162E0C60ED11CE11CF11CD80153967D
:10192000CD92DD92ED92FC925697F801838E948EC3
:10193000A58EB68E8F89988DA98DBA8D880D991D2B
:10194000AA1DBB1D878F90A3A1A3B2A3B501A401BB
:10195000440D551D661D771D47A350A761A772A7AB
:10196000F3E02F16310409F040C0F801E65AFF4FAA
:10197000808190E0982F882731972081822B892BB6
:1019800009F0DCC02D893E89232B09F0D9C0C8019C
:10199000855A9F4F0E94BE02D80193966D937D9306
:1019A0008D939C939697CC0CDD1CEE1CFF1CCC0CED
:1019B000DD1CEE1CFF1CBFEFCB0EB1E0DB1EE11CFB
:1019C000F11C0B2EB9E0F694E794D794C794BA951E
:1019D000D1F7B02D29893A894B895C892C153D05B1
:1019E0004E055F0508F4AEC0EBC04D895E89452BFE
:1019F00009F4AAC04B8C5C8C6D8C7E8C480E591EF1
:101A00006A1E7B1ED80193964D925D926D927C92D8
:101A10009697B2E02B16310429F4CC0CDD1CEE1C99
:101A2000FF1CB5C0A3E0B0E0A70196019DD7DC0183
:101A3000CB01B695A79597958795E1E0CE22DD2459
:101A4000EE24FF24C80ED91EEA1EFB1EA0C0B5015D
:101A5000A4014F5F5F4F6F4F7F4FC8010E94D703B4
:101A6000811139C0D80114961C92F801E25DFD4F36
:101A7000808190E0982F882731972081822B8535AF
:101A80009A4A49F5C8018F960E94BE026235724596
:101A90008146914401F5C8018D5E9D4F0E94BE02B2
:101AA0006237724781449146B1F4C801895E9D4F07
:101AB0000E94BE02D8011F966D937D938D939C93D7
:101AC0005297C801855E9D4F0E94BE02F801638750
:101AD000748785879687D8012C92809131019091E7
:101AE00032010196909332018093310116969C93B6
:101AF0008E93159780E0ACC08BE0AAC08CE0A8C0A4
:101B000080E0A6C080E0A4C083E0A2C08AE0A0C0BC
:101B100081E09EC08DE09CC08DE09AC08DE098C0B1
:101B20008DE096C08DE094C08DE092C08DE090C0B5
:101B30008DE08EC08DE08CC08DE08AC08DE088C0C5
:101B40008DE086C08DE084C08DE082C081E080C0E1
:101B50008DE07EC040E050E0BA01C801F8DC823080
:101B6000910509F0D1CD98CD049709F0D4CDEECFF1
:101B70008FEF9FEFDC01F8018787908BA18BB28BF1
:101B800083879487A587B68780E88483A4CFFFEFF7
:101B9000CF0EF1E0DF1EE11CF11C0B2EB9E0F69434
:101BA000E794D794C794BA95D1F7B02D29893A898B
:101BB0004B895C892C153D054E055F0548F2D8CF51
:101BC0008FEF9FEFDC01F8018787908BA18BB28BA1
:101BD00083879487A587B68780E88483E05AFF4F80
:101BE000808190E0982F882731972081822B019760
:101BF00009F071CF2CCF69017A01F2E0CF0ED11C30
:101C0000E11CF11CD8015396CD92DD92ED92FC922D
:101C10005697F801838E948EA58EB68E8F89988DF7
:101C2000A98DBA8D880D991DAA1DBB1D878F90A304
:101C3000A1A3B2A3B501A401440D551D661D771DD6
:101C400047A350A761A772A722242394312CCDCE9D
:101C50006E960FB6F894DEBF0FBECDBFDF91CF9169
:101C60001F910F91FF90EF90DF90CF90BF90AF90BA
:101C70009F908F907F906F905F904F903F902F90AC
:101C800008950F931F93DC01FB01938D692F70E082
:101C9000762F6627828D682B80E090E02C91233090
:101CA00079F4058910E0102F00272489022B20E009
:101CB00030E0980111270027602B712B822B932B8A
:101CC0001F910F9108952F923F924F925F926F92C2
:101CD0007F928F929F92AF92BF92CF92DF92EF92BC
:101CE000FF920F931F93CF93DF93CDB7DEB7289763
:101CF0000FB6F894DEBF0FBECDBFDC010D90BC91D6
:101D0000A02DBA83A983E62FF72F98878F834F01E1
:101D100081918F32E1F38C35D1F3EF81F885DF01CA
:101D20001682178210861186F4018081803260F459
:101D300080E897968C93979740E050E0BA01CD01E8
:101D40000E947606582E5AC16F807884FCE16F0E8F
:101D5000711CEF80F88427E2E20EF11C10E2B12C36
:101D60006894442443F8212C0F2EFBE0AF2EF02D75
:101D7000312CAD823E8289819A818F969C838B83A0
:101D8000F3011193EE16FF06E1F740E050E08B2DD2
:101D900090E0A42DB22D01C0C9019C012F5F3F4FDF
:101DA000F401E80FF91F0081013208F452C00F322C
:101DB00011F00C3561F4F401E20FF31F02C02F5F44
:101DC0003F4F81918F32D9F38C35C9F342C00E3227
:101DD00009F401C14A175B0708F0B4C0013808F4E0
:101DE000D3C0003A08F4FEC060E2600F6D3108F421
:101DF000F9C0CAC030E8320F3D3708F4CDC02F37E4
:101E000008F4CAC00F2EF6E05F2EF02DF7C0F301E4
:101E1000E40FF51F0083FA013196E60DF71D4E5FC2
:101E20005F4F20839C01B8CF8191882309F4BCC007
:101E300090E068177907C1F70F2EF6E05F2EF02DBE
:101E4000DDC00052F301E40FF51F00834F5F5F4FC9
:101E5000A3CF820E931E452B09F479C0AF81B885BC
:101E60005C968C915C97853E19F4E5E05C96EC936A
:101E7000013210F080E001C084E0AF81B885979610
:101E80008C939797CD90DC90119740E050E0BA0189
:101E9000CD010E947606582E811194C0AF81B8857D
:101EA00056964D915D916D917C915997C6010E9416
:101EB000D703582E811187C0AF81B8855A96ED910E
:101EC000FC915B9780818823D1F00385802F8F73ED
:101ED00014968C93838583FD09C04A2D532DB3013D
:101EE000CF010E94E702892B09F464C06B2D70E0DA
:101EF0008F819885D7D9582E882381F264C02F818D
:101F00003885D90197968C9182FD26C00F2EF5E079
:101F10005F2EF02D73C004FF23C0EF81F885668526
:101F2000778571702B813C81620F731F89819A8143
:101F3000A8DEAF81B88516966D937D938D939C93A3
:101F400019971ECF0F2EF6E05F2EF02D57C00F2EE3
:101F5000F6E05F2EF02D52C06894552452F84EC022
:101F60000F2EF5E05F2EF02D49C00F2EF6E05F2E0C
:101F7000F02D44C00F2EF6E05F2EF02D3FC00F2E47
:101F8000F6E05F2EF02D3AC0602F70E062327105EE
:101F900061F3EEE0F1E048CFBD01615071094617F1
:101FA000570708F434CFE6CF8FE9800F8A3108F461
:101FB00048CF48CF2F813885D90197968C9182FFE1
:101FC000AACF1CC000C0AF81B88597968C91B4E0B1
:101FD0005B1214C099CF1B9791F248E050E0AD819D
:101FE000BE81DACE0296F401E20FF31F2081203485
:101FF00008F000CF0F2EF6E05F2EF02D852D2896ED
:102000000FB6F894DEBF0FBECDBFDF91CF911F9109
:102010000F91FF90EF90DF90CF90BF90AF909F9087
:102020008F907F906F905F904F903F902F9008958A
:102030001F93CF93DF9300D000D000D0CDB7DEB791
:102040009C838B837E836D83142F7A836983CE0177
:1020500001960E941D0399231CF1FC01EE0FFF1F46
:10206000ED5CFE4F0190F081E02D309709F0108279
:10207000EB81FC81309709F01082880F991FFC01D9
:10208000ED5CFE4F8B819C8191838083112351F005
:1020900040E0BE016D5F7F4FCE010596A2DA03C01E
:1020A0008BE001C080E026960FB6F894DEBF0FBE2D
:1020B000CDBFDF91CF911F9108952F923F924F9204
:1020C0005F926F927F928F929F92AF92BF92CF92C8
:1020D000DF92EF92FF920F931F93CF93DF93CDB7D1
:1020E000DEB7AC970FB6F894DEBF0FBECDBF7CA7AE
:1020F0006BA7009709F430C1142F7C01842F8F73D4
:10210000D82E482FBE01675D7F4FCE018B9669DACE
:1021100081111EC189A59AA59A8389836BA57CA587
:10212000CE010196D0DD811119C188A588230CF05C
:102130001EC118C1843009F042C1CE010196ADD94B
:102140009D2D9860D92E882339F002C18D8181712F
:1021500009F05EC112FD5EC1D3FE55C00B8D1C8D12
:10216000A9A4BAA4B801C5018CDD2B013C01F8017A
:1021700016861786108A118AEB8DFC8D80E2838784
:102180006B8D7C8D20E030E0A901C5010E948F0598
:10219000EB8DFC8D148E158E168E178EE9A5FAA583
:1021A00081E08383411451046104710449F183A4E3
:1021B00094A4A5A4B6A400E010E09801B301A20184
:1021C000CE0101960E94C0088111C2C0B501A401D0
:1021D00089A59AA50E94D703E9A5FAA591E0491A15
:1021E000510861087108438654866586768688237F
:1021F00039F0AEC011FF02C080FD0EC113FF03C055
:10220000ED2DE064DE2EE9A5FAA583A594A5A5A58C
:10221000B6A5F701848F958FA68FB78F8B8D9C8D78
:1022200091A380A3AB8CBC8C09A51AA5B501C801EC
:1022300028DDF7016683778380879187C5014C96F7
:102240000E94BE02F7016287738784879587118396
:102250000083F80185819681F70193838283D68676
:102260001786108E118E128E138E108A118A128A82
:10227000138A1701F2E22F0E311CF101C7018E5DA6
:102280009D4F1192E817F907E1F7D5FE91C0F701CC
:10229000428453846484758441145104610471043C
:1022A00009F486C0408A518A628A738AF80181855E
:1022B0009285A0E0B0E04C015D01072E79E0880C2A
:1022C000991CAA1CBB1C7A95D1F7702DF701468189
:1022D00057816085718584149504A604B70408F0BD
:1022E00058C0C7010E949C05AB01BC01423051059A
:1022F0006105710508F076C083C0C9A4DAA4C601DF
:102300000E94F502611571058105910509F452C01D
:10231000930182010F2EF9E03695279517950795C1
:10232000FA95D1F7F02DA9019801260F371F481F04
:10233000591FF701208F318F428F538F01E010E03A
:10234000B101F60181810E94FA01811135C030C0CE
:10235000F7011182108264C089E062C0412F4C7184
:1023600059F0E8CE412F4C7149F586E005C0812F28
:102370008C7109F0EBCE27C08111EACF53CF8FEFDC
:102380009FEFDC01F701848B958BA68BB78B81E0E7
:10239000DFCFF701448B558B668B778BD301C2015E
:1023A0009170AA27BB27892B8A2B8B2B09F0A5CFED
:1023B00080E036C082E0CCCF81E0CACF86E0FD2D40
:1023C000F860DF2ED9CF8D8184FD28C013CF481847
:1023D00059086A087B0884149504A604B70408F415
:1023E00080CFD7CF4F3F8FEF58076807780779F72F
:1023F000C6CFF701448B558B668B778B82E0A8CFD5
:102400004F3FFFEF5F076F077F0709F4B8CFF1CFAA
:1024100087E09ECF88E09CCF87E09ACF84E098CF7A
:10242000AC960FB6F894DEBF0FBECDBFDF91CF9153
:102430001F910F91FF90EF90DF90CF90BF90AF90E2
:102440009F908F907F906F905F904F903F902F90D4
:1024500008952F923F924F925F926F927F928F9248
:102460009F92AF92BF92CF92DF92EF92FF920F9323
:102470001F93CF93DF93CDB7DEB72A970FB6F894AB
:10248000DEBF0FBECDBF7C014B016A015901F901CE
:10249000118210828F83F886BE016F5F7F4F0E948A
:1024A0005303811192C1F701878581118EC1868501
:1024B00081FF8AC180899189A289B389AC01BD015C
:1024C0004C0D5D1D611D711D481759076A077B077B
:1024D00018F46C01C094D094C114D10409F46EC1F5
:1024E00097012E5D3F4F3A872987F70180899189AF
:1024F000A289B389AC01BD01517066277727452BAE
:10250000462B472B09F015C1E981FA816184728459
:10251000F1E06F1A7108AC01BD01032E39E0769528
:102520006795579547953A95D1F7302D64227522D6
:102530006114710409F049C0892B8A2B8B2B91F40B
:10254000F701668177818085918561157105810527
:102550009105B9F440E050E0BA018F8198850E945E
:102560005F0709C0F70144895589668977898F819A
:1025700098850E945F07611571058105910509F431
:102580001DC1613071058105910521F482E0F701DB
:1025900087871BC16F3FFFEF7F078F079F0721F4DE
:1025A00081E0F701878711C1F701648B758B868BFA
:1025B000978B0681178120853185012B022B032BF8
:1025C00021F46683778380879187F7018685882346
:1025D000BCF4208D318D428D538DE981FA8101E06B
:1025E00010E069857A8581810E945002882321F05C
:1025F00081E0F7018787E9C0F70186858F778687B5
:1026000029813A813E832D83F70144895589668962
:102610007789C9010E94F50261157105810591054F
:1026200021F482E0F7018787D0C01B012C01260C22
:10263000371C411C511C9601232F332726953C83C0
:102640002B832115310509F447C0ED81FE81818579
:102650009285260D371D8217930728F49C012619B1
:1026600037093C832B830B811C81A2019101B401AA
:10267000ED81FE8181810E945002882321F081E05A
:10268000F7018787A2C0F701808D918DA28DB38D50
:1026900082199309A409B5092B813C81A90160E045
:1026A00070E084179507A607B70780F4982F88274E
:1026B000990FB401680F791F40E052E089859A852F
:1026C0000E94D902F70186858F7786876B807C8090
:1026D000762C6624770C46C0F701808D918DA28DF3
:1026E000B38D281639064A065B06F1F040895189F8
:1026F0006289738982859385A485B58548175907B2
:102700006A077B0788F401E010E0A2019101698566
:102710007A85ED81FE8181810E94FA01882321F072
:1027200081E0F701878751C0F701208E318E428EFC
:10273000538EF70180899189917020E032E0390150
:10274000681A790AC614D70408F43601A301B40143
:1027500029853A85820F931F0E94D902F701868549
:1027600080688687C618D708F50180819181860D1B
:10277000971D91838083860C971CF701808991892E
:10278000A289B389860D971DA11DB11D808B918BE8
:10279000A28BB38B4285538564857585481759078D
:1027A0006A077B0710F4AC01BD01F701428753872C
:1027B00064877587C114D10409F097CEF701868527
:1027C0008064868780E001C087E02A960FB6F8947F
:1027D000DEBF0FBECDBFDF91CF911F910F91FF9054
:1027E000EF90DF90CF90BF90AF909F908F907F90B1
:1027F0006F905F904F903F902F9008950F931F938D
:10280000CF93DF9300D000D0CDB7DEB77C836B834E
:10281000009781F18C0140E0BE016F5F7F4FCE01D8
:1028200003960E94F10A811121C089819A81F801E1
:10283000918380836B817C81C80145DA811131C02D
:10284000F80187A18823D4F0848184FF0EC0628DB3
:10285000738D89819A8115DAF80166837783808781
:1028600091870CC0882341F001C085E0F8011182F6
:1028700010821AC089E018C080E016C0E981FA8190
:1028800085819681F8019383828340E050E0BA010C
:10289000C8010E947606843029F785E0E7CF85E0FD
:1028A000E5CF8430E1F3E2CF0F900F900F900F90BF
:1028B000DF91CF911F910F9108958FEF8093390190
:1028C0001DC040E06DE171E087E893E0B1DB8093EB
:1028D00039016CE171E08EE593E090DF809339017E
:1028E00042E16EE171E08AE391E0E7DB8093390138
:1028F000882321F010920201109201018091390188
:102900008111DFCF0895D9DF25E331E044E050E0C5
:1029100068E271E08AE391E09CDD8093390180E018
:1029200090E00895A1E21A2EAA1BBB1BFD010DC069
:10293000AA1FBB1FEE1FFF1FA217B307E407F5076F
:1029400020F0A21BB30BE40BF50B661F771F881F4B
:10295000991F1A9469F760957095809590959B01E1
:10296000AC01BD01CF01089509D0A59F900DB49F82
:10297000900DA49F800D911D11240895A29FB00178
:10298000B39FC001A39F700D811D1124911DB29FA3
:0E299000700D811D1124911D0895F894FFCF44
:10299E0001010046415400464154333200222A2B95
:1029AE002C3A3B3C3D3E3F5B5D7C7F002F002F640D
:0E29BE006174612E7478740074657374000087
:00000001FF
