:1000000089C0000097C0000095C0000093C00000A8
:1000100091C000008FC000008DC000008BC00000A8
:1000200089C0000087C0000085C0000083C00000B8
:1000300081C000007FC000007DC000007BC00000C8
:1000400079C0000077C0000095C0000073C00000B8
:1000500071C000006FC000006DC000006BC00000E8
:1000600069C0000067C0000065C0000063C00000F8
:1000700061C000005FC000005DC000005BC0000008
:1000800059C0000057C0000055C00000BD01C001AC
:10009000B301B701D701D701C401C801CE01D20114
:1000A000000000010200090A000000000403080724
:1000B0000000000000000000000000000000000040
:1000C0000102040810204080010204081020408032
:1000D0000102040810204080010204081020408022
:1000E00002020202020202020404040404040404E0
:1000F00003030303030303030101010101010101E0
:1001000000002200250028002B0000002100240010
:1001100027002A0011241FBECFEFD0E4DEBFCDBFE1
:1001200021E0A0E0B1E001C01D92A930B207E1F7E3
:1001300016D0B2C165CF61E081E03AC161E081E0F3
:1001400073D160ED77E080E090E083D060E081E003
:100150006BD160ED77E080E090E07BC00895B2D095
:10016000FDDFE9DFC0E0D0E0E9DF2097E9F30E949E
:100170000000FACF1F920F920FB60F9211242F9307
:100180003F938F939F93AF93BF9380910101909181
:100190000201A0910301B09104013091000123E01C
:1001A000230F2D3720F40196A11DB11D05C026E8AF
:1001B000230F0296A11DB11D209300018093010120
:1001C00090930201A0930301B09304018091050173
:1001D00090910601A0910701B09108010196A11D1F
:1001E000B11D8093050190930601A0930701B09380
:1001F0000801BF91AF919F918F913F912F910F90E7
:100200000FBE0F901F9018953FB7F894809105018D
:1002100090910601A0910701B091080126B5A89B15
:1002200005C02F3F19F00196A11DB11D3FBFBA2F88
:10023000A92F982F8827820F911DA11DB11DBC01E8
:10024000CD0142E0660F771F881F991F4A95D1F7AD
:1002500008958F929F92AF92BF92CF92DF92EF92CA
:10026000FF926B017C01D0DF4B015C01C114D10412
:10027000E104F104F1F006D1C7DFDC01CB018819FC
:100280009909AA09BB09883E9340A105B10570F3FD
:1002900021E0C21AD108E108F10888EE880E83E057
:1002A000981EA11CB11CC114D104E104F10421F772
:1002B000DDCFFF90EF90DF90CF90BF90AF909F90F9
:1002C0008F900895789484B5826084BD84B58160F0
:1002D00084BD85B5826085BD85B5816085BDEEE64E
:1002E000F0E0808181608083E1E8F0E0108280812D
:1002F00082608083808181608083E0E8F0E080819B
:1003000081608083E1EBF0E0808184608083E0EBBA
:10031000F0E0808181608083E1E9F0E080818260AB
:100320008083808181608083E0E9F0E0808181606A
:100330008083EAE7F0E0808184608083808182604E
:100340008083808181608083808180688083109237
:10035000C100089590E0FC013197EA30F10538F5CD
:10036000EA5BFF4F90C0809180008F7703C080913F
:1003700080008F7D80938000089584B58F7702C0C0
:1003800084B58F7D84BD08958091B0008F7703C0C0
:100390008091B0008F7D8093B0000895809190008F
:1003A0008F7703C0809190008F7D80939000089597
:1003B000CF93DF9390E0FC01E054FF4F2491FC01C8
:1003C000E052FF4F8491882361F190E0880F991FDC
:1003D000FC01E65FFE4FC591D491FC01E050FF4F58
:1003E000A591B491611109C09FB7F89488812095B7
:1003F00082238883EC912E230BC0623061F49FB777
:10040000F8948881322F309583238883EC912E2BAA
:100410002C939FBF06C08FB7F894E8812E2B2883BA
:100420008FBFDF91CF9108951F93CF93DF93282F34
:1004300030E0F901E056FF4F8491F901E054FF4F9D
:10044000D491F901E052FF4FC491CC23B9F0162F9B
:10045000811180DFEC2FF0E0EE0FFF1FE050FF4F27
:10046000A591B4919FB7F894111104C08C91D095C7
:10047000D82302C0EC91DE2BDC939FBFDF91CF919C
:100480001F9108950895EE0FFF1F0024001C0BBE5E
:0C0490000790F691E02D0994F894FFCF3E
:00000001FF
