:1000000045C0000060C000005EC000005CC0000091
:100010005AC0000058C0000056C0000054C0000084
:1000200052C0000050C000004EC000004CC0000094
:100030004AC0000048C0000046C0000044C00000A4
:1000400042C0000040C000003EC000003CC00000B4
:100050003AC0000038C0000036C0000034C00000C4
:1000600032C0000030C000002EC000002CC00000D4
:100070002AC0000028C0000026C0000024C00000E4
:1000800022C0000020C000001EC0000011241FBEBE
:10009000CFEFD0E4DEBFCDBF11E0A0E0B1E0EAE4F5
:1000A000F4E000E00BBF02C007900D92A632B1074A
:1000B000D9F721E0A6E2B1E001C01D92A632B20755
:1000C000E1F77ED1C0C19CCFEF92FF920F931F93B7
:1000D000CF93DF93CDB7DEB76D970FB6F894DEBF41
:1000E0000FBECDBF0F2EF5E0EF2EF1E0FF2EF02D6D
:1000F00000E010E0A0D1F70191917F018913C6C003
:100100000F5F1F4F07301105A9F795D18C32E9F722
:10011000E12C00E010E08FD18C3209F4ADC0023048
:1001200011055CF4E1E0F0E0EC0FFD1FEE0DF11DB8
:100130008083E39402C00F5F1F4F0230110559F70F
:10014000F12C02E010E012C076D18C3209F499C093
:10015000043011055CF4ECE0F0E0EC0FFD1FEF0D56
:10016000F11D8083F39402C00F5F1F4FC8010297F7
:10017000029750F3FE01EE0DF11D1182FE01EF0D0D
:10018000F11D1486898190E0C0970A9708F07EC01F
:1001900012B88AE240D18E010F5F1F4F7E01FCE052
:1001A000EF0EF11CF80181918F0135D1E016F106B7
:1001B000C9F78E01045F1F4F7E01F8E1EF0EF11CBD
:1001C000F80181918F0127D10E151F05C9F781E232
:1001D00022D17E01F8E1EF0EF11C00E010E001C039
:1001E000890121D1F70181937F0198012F5F3F4F52
:1001F0008132B1F7E8E1F0E0EC0FFD1FE00FF11FF5
:100200001082BE01645F7F4FCE010196B3D0FFEF35
:100210002EE984E2F15020408040E1F700C0000068
:1002200081E041D0EFEFFCE73197F1F700C000002B
:1002300082E039D08FEF9CE70197F1F700C0000012
:100240008DE091E083D0CE01489680D084E191E0AA
:100250007DD09FEFE4E3FCE09150E040F040E1F717
:1002600000C0000082E01FD08FEF9CE70197F1F7FC
:1002700000C0000012B80AC00230110509F05BCFBF
:100280005FCF0430110509F06FCF74CF6D960FB6B4
:10029000F894DEBF0FBECDBFDF91CF911F910F91BC
:1002A000FF90EF90089588B98BB18F738BB95D9AE9
:1002B0008DE08A95F1F700005D988DE08A95F1F761
:1002C00000000895EF92FF920F931F93CF93DF9357
:1002D00000D000D01F92CDB7DEB785E0E0E0F1E0BE
:1002E000DE01119601900D928A95E1F78E010F5F64
:1002F0001F4F7E0186E0E80EF11CF80181918F010D
:10030000D2DF8FE99FE00197F1F700C000000E15E2
:100310001F0599F70F900F900F900F900F90DF919E
:10032000CF911F910F91FF90EF90089588B95F983A
:100330005E9A5D9A8DE08A95F1F700008BB1807C22
:100340008BB98DE08A95F1F700000895CF93DF9384
:10035000EC018881882359F02196E8DF8FE99FE03E
:100360000197F1F700C0000089918111F6CFDF916C
:10037000CF9108950F931F93CF93DF938C01EB01DF
:1003800087E191E0E3DFC801E1DF8CE191E0DEDFAE
:100390008FE191E0DBDFCE01D9DF8FE99FE00197AC
:1003A000F1F700C0000082E07EDF8FEF9CE701974D
:1003B000F1F700C00000DF91CF911F910F910895D8
:1003C0008FEF87B980EE8AB91BB883E081B97ADFF5
:1003D0002FEF80E792E0215080409040E1F700C08D
:1003E000000004D0C1E0C2B96FDEFDCF1092C5009D
:1003F00093E39093C40080E18093C10086E08093F2
:10040000C2001092CD009093CC0098E19093C90067
:100410008093CA000895E8ECF0E0908195FFFDCF4D
:100420008093CE000895E8ECF0E080818823ECF71B
:100430008091CE000895E0ECF0E080818823ECF715
:0A0440008091C6000895F894FFCFE4
:10044A00380E0114022447504747412C0044657076
:10045A0074683A006D6D004C61743A002020004CBB
:06046A006F6E673A00000E
:00000001FF
