:1000000054C0000071C000006FC000006DC000004F
:100010006BC0000069C0000067C0000065C0000040
:1000200063C0000061C000005FC000005DC0000050
:100030005BC0000059C0000057C0000055C0000060
:1000400053C0000051C000004FC000004DC0000070
:100050004BC0000049C0000047C0000045C0000080
:1000600043C0000041C000003FC000003DC0000090
:100070003BC0000039C0000037C0000035C00000A0
:1000800033C0000031C000002FC0000008030F0380
:100090007F0386035F045F045F045F045F045F0403
:1000A00011041704280439044D0411241FBECFEF96
:1000B000D0E4DEBFCDBF11E0A0E0B1E0E4E2F2E3C6
:1000C00000E00BBF02C007900D92AC31B107D9F729
:1000D00025E0ACE1B1E001C01D92AE38B207E1F716
:1000E0000E9436180C9410198BCF1CBC84B18F74ED
:1000F00084B985B18F7485B908958EBD0DB407FE9E
:10010000FDCF8EB5089582E380931D018FEFF5DF5B
:100110008F3F21F090911D019111F8CF21E030E047
:100120008F3F11F020E030E0C90108952C9A8FEF45
:10013000E4CF0895CF93DF932C988FEFDEDFE3DFDA
:10014000EC01892B11F4F2DF02C0C1E0D0E0CE0156
:10015000DF91CF9108950F931F93CF93DF93082FD3
:10016000192FEB0184E180931E018FEFC6DF8F3FD3
:1001700039F480911E018111F8CF80E090E020C019
:100180008E3FE1F4E02FF12F8FEF8EBD0DB407FE0F
:10019000FDCF9EB5DF0190838EBD0DB407FEFDCF70
:1001A0009EB511969C9322973296209771F78FEF08
:1001B000A4DF8FEFA2DF81E090E002C080E090E05A
:1001C000DF91CF911F910F9108951F93CF93DF93EC
:1001D000EC01162F98DF009741F1812F8EDF1D3F34
:1001E00011F1FE019E013E5FDF0190819EBD0DB4C5
:1001F00007FEFDCF11969C919EBD0DB407FEFDCF6D
:100200003296E217F30781F78FEF77DF8FEF75DF15
:100210008FEF73DF8F7131E020E0853009F030E03F
:10022000832F922F02C081E090E0DF91CF911F9148
:100230000895FF920F931F93CF93DF93C82FD42F6E
:10024000152F062FF72E882344F440E050E0BA0122
:1002500087E3EFDF823050F5CF7768DF6BDF892BE4
:10026000E9F08C2F806449DF8F2D47DF802F45DF39
:10027000812F43DF8D2F41DFCC23A9F0C83081F0DF
:1002800081E03BDFCC3011F48FEF37DFCAE08FEF36
:1002900034DF88235CF4C150D1F708C08FEF06C06B
:1002A00087E82BDFF3CF85E928DFF0CFDF91CF910F
:1002B0001F910F91FF900895CF92DF92EF92FF92DE
:1002C0000F931F93CF93DF9300D000D0CDB7DEB74D
:1002D00081119CC00ADF8091000181FF03C08091E1
:1002E00000019FC085B1806385B984B1806B84B9FA
:1002F00081E58CBD82E58CBD1AE08FEFFEDE1150EA
:10030000E1F740E050E0BA0180E093DF813009F08E
:1003100084C084E680931E014AEA51E060E070E008
:1003200088E087DF813009F03DC0CE0101966C0185
:100330007E0195E0E90EF11C86018FEFDEDEF8010B
:1003400081938F01EE15FF05C1F78B81813009F094
:1003500064C08C818A3A09F060C080911E018823B4
:1003600041F040E050E060E070E489EA62DF811132
:10037000F4CF80911E01882309F44FC040E050E083
:10038000BA018AE356DF811148C08FEFB6DEF6016D
:1003900081936F01EE16FF06C1F7898186FD38C093
:1003A00084E037C040E050E0BA0189EA42DF8230A1
:1003B00018F001E011E002C002E019EA80911E018C
:1003C000882339F040E050E0BA01812F32DF8111FB
:1003D000F5CF80911E01882301F140E052E060E0FA
:1003E00070E080E126DF811118C000931C019EDEC1
:1003F000002341F0809100018E7F8093000180E511
:100400008CBD01C072DE809100010BC081E009C08B
:100410008CE080931C018ADEEDCF10921C0186DEF9
:10042000F1CF0F900F900F900F90DF91CF911F9110
:100430000F91FF90EF90DF90CF900895811103C04E
:1004400080910001089581E008950F93CF93DF9389
:10045000EB0181113EC0002309F43DC080910001F1
:1004600080FD3BC080911C0183FD09C0012E19E075
:10047000220F331F441F551F1A95D1F7102D01303D
:1004800071F4BA01A90181E1D4DE81111CC060E0E0
:1004900072E0CE0160DE892BB1F000E014C0BA0139
:1004A000A90182E1C6DE81110EC060E072E0CE01DA
:1004B00052DE892B19F0DE5F0150B9F740E050E0C1
:1004C000BA018CE0B6DE32DE81E0011107C080E0C7
:1004D00005C084E003C084E001C083E0DF91CF91D8
:1004E0000F910895CF92DF92EF92FF920F93CF93E7
:1004F000DF93EB0169017A0181114AC0002309F4FD
:1005000049C08091000180FD47C08091000182FDBB
:1005100045C080911C0183FD09C00B2EB9E0CC0CB5
:10052000DD1CEE1CFF1CBA95D1F7B02D013069F42B
:10053000B701A60188E17DDE811124C06EEFCE01F6
:1005400044DE892BF9F000E01DC0867031F0402FA9
:1005500050E060E070E087E96CDEB701A60189E158
:1005600068DE81110FC06CEFCE012FDE892B19F0F0
:10057000DE5F0150C1F76DEF80E090E026DE892B51
:1005800009F401E0D3DD81E0011109C080E007C07A
:1005900084E005C084E003C083E001C082E0DF9115
:1005A000CF910F91FF90EF90DF90CF900895EF9251
:1005B000FF920F931F93CF93DF93CDB7DEB7609772
:1005C0000FB6F894DEBF0FBECDBF811192C18A0174
:1005D000653079F4FA018081882319F0813021F0A7
:1005E0008AC183DD80E08AC181E0FA01818380E0F5
:1005F00085C18091000180FD80C1862F90E08F3001
:10060000910508F05CC1FC01EA5BFF4F0C94EE1809
:1006100091DD892B09F455C189DD10E067C140E007
:1006200050E0BA0189E005DE81114DC160E170E062
:10063000CE01019690DD892B09F447C1898182950D
:10064000869586958370813031F5298530E0322F8B
:1006500022278A85280F311D88858F7390E0A0E0BE
:10066000B0E0DC01992788270196A11DB11D820FFA
:10067000931FA11DB11D072E7AE0880F991FAA1F95
:10068000BB1F7A95D1F7702DF80180839183A283E7
:10069000B38310E02BC129852295269526952370DA
:1006A0008885F4E08F9FC0011124820F911D9C0169
:1006B0002F5F3F4F8F81837090E0982F8827990F8D
:1006C000990F820F931FA0E0B0E03E813F702B8511
:1006D000221F2227221F320F2A852370220F230F69
:1006E000275004C0880F991FAA1FBB1F2A95D2F755
:1006F000F80180839183A283B38310E0F7C080E088
:1007000092E0FA019183808310E0F0C0F0901C0128
:10071000F2FE2FC040E050E0BA018DE88ADD811181
:10072000D6C08FEFEADC60E170E0CE01019613DD08
:10073000892B09F4CEC00F2EF0E3FF2EF02D8FEFA2
:10074000DCDCFA94F110FBCF2B8522952F7080E131
:1007500090E0A0E0B0E004C0880F991FAA1FBB1F63
:100760002A95D2F7F80180839183A283B38310E0A6
:10077000BDC040E050E0BA0189E05BDD8111ABC053
:1007800060E170E0CE010196E6DC892B09F4A5C09A
:10079000F1FE20C02B852F738C85881F8827881F2A
:1007A00090E00196820F911D820F911D2E8522955A
:1007B000269526952370215002C0880F991F2A95EF
:1007C000E2F7A0E0B0E0F80180839183A283B383D5
:1007D00010E08CC08C85282F2370829586958770B9
:1007E00090E0F8E02F9F800D911D112401962B853C
:1007F0002C7730E035952795359527952F5F3F4F1E
:10080000829FA001839F500D929F500D1124CA0119
:10081000A0E0B0E0F80180839183A283B38310E06D
:1008200065C080911C01FA01808310E05FC040E048
:1008300050E0BA0189E0FDDC811151C060E170E057
:10084000C80189DC11E0892B09F450C010E04EC0CA
:1008500040E050E0BA018AE0ECDC811142C060E186
:1008600070E0C80178DC11E0892B09F43FC010E08A
:100870003DC040E050E0BA018AE3DBDC811133C0C7
:1008800078010C5F1F4F8FEF38DCF70181937F01F8
:100890000E171F07C1F710E029C040E050E0BA0171
:1008A0008DE8C7DC811121C08FEF27DC60E470E0A8
:1008B000C80151DC11E0892BC9F010E017C014E029
:1008C00015C011E013C011E011C011E00FC011E01C
:1008D0000DC011E00BC011E009C011E007C011E02C
:1008E00005C011E003C011E001C011E01FDC812F41
:1008F00005C084E003C084E001C083E060960FB6C9
:10090000F894DEBF0FBECDBFDF91CF911F910F9145
:10091000FF90EF9008954115510551F0A62FB72F84
:10092000FC01480F591F9D919193E417F507D9F7E2
:1009300008950F931F93DC01FB01938D692F70E0E5
:10094000762F6627828D682B80E090E02C912330F3
:1009500079F4058910E0102F00272489022B20E06C
:1009600030E0980111270027602B712B822B932BED
:100970001F910F9108954F925F926F927F92AF9265
:10098000BF92CF92DF92EF92FF920F931F93CF937C
:10099000DF93FC01C6A4D7A4E0A8F1A8C416D5062D
:1009A000E606F70609F44CC02A013B01EC018481FC
:1009B000882391F15F01F2E3AF0EB11C01E0A701C2
:1009C0009601B50189818EDD81113CC01C824AA14E
:1009D0005BA16CA17DA18E8D9F8DA8A1B9A1840F73
:1009E000951FA61FB71FC816D906EA06FB06A0F476
:1009F0001B81123088F08E8D9F8DA8A1B9A1C80EE1
:100A0000D91EEA1EFB1E01E0A7019601B5018981EE
:100A100069DD1150113079F74114510461047104FA
:100A200099F001E0A3019201BE016E5C7F4F8981C4
:100A30000CDD81110BC04EA65FA668AA79AA07C07B
:100A400080E005C081E003C080E001C081E0DF916B
:100A5000CF911F910F91FF90EF90DF90CF90BF90BB
:100A6000AF907F906F905F904F9008950F93CF93CA
:100A7000DF93EC019A01AB01BC016E5C7F4F01E09A
:100A80008981E3DC811151C0FE01EF5CFD4F808163
:100A900090E0982F882731972081822B85359A4ABC
:100AA00009F045C0E55CF14020813197808190E0FC
:100AB000A0E0B0E0DC0199278827B22B3297208193
:100AC000822B3196408150E0542F442760E070E043
:100AD000842B952BA62BB72BBB2786349144A4459A
:100AE000B10539F17E9680813197408150E060E018
:100AF00070E0BA0155274427782B32978081482B24
:100B0000CB57DF4F888190E0982F8827A0E0B0E096
:100B1000482B592B6A2B7B2B772781E04634514495
:100B20006445710539F480E005C083E003C082E0CC
:100B300001C080E0DF91CF910F910895DC01ED912C
:100B4000FC911197309791F02081222389F0268122
:100B5000378112968D919C9113972817390751F47C
:100B600081816CDC80FD08C080E0089589E00895F3
:100B700089E0089589E0089583E008952F923F92D7
:100B80004F925F926F927F928F929F92AF92BF929D
:100B9000CF92DF92EF92FF920F931F93CF93DF9349
:100BA000CDB7DEB72E970FB6F894DEBF0FBECDBF20
:100BB000DC01ED91FC911197208130E02053310947
:100BC0002A30310538F451815A3321F43296ED93AD
:100BD000FC9303C020911F0130E0FB0111821082C1
:100BE000232B09F0E9C220912201309123013E8795
:100BF0002D872115310509F4E1C2142F318320839B
:100C0000D9018C91882361F011968C9117DC80FDBD
:100C100007C0112309F4D4C282FFD4C28AE0ABC357
:100C2000ED85FE851082118280E046DB80FDCCC21E
:100C3000112311F082FDCAC240E050E0BA018D8557
:100C40009E8514DF8130C9F5ED85FE85EC50FE4FA1
:100C50008081882309F4BCC2ED85FE85E550FE4FF6
:100C60008081ED85FE85E650FE4F4080512C612C41
:100C7000712C320155244424782AED85FE85E850F4
:100C8000FE4F8081A3019201282BDA01C901ED8575
:100C9000FE85E750FE4FE0814E2E512CF42DEE27BD
:100CA0002F01612C712C482A592A6A2A7B2AB30108
:100CB000A2018D859E85DADE03C0412C512C3201C4
:100CC000833009F487C2811187C2AD85BE85DE9667
:100CD0008C91DE9790E0982F8827DD962C91822BBF
:100CE0008115924009F07AC2ED85FE85E75BFF4FE2
:100CF000C080D12CDC2CCC24ED85FE85E85BFF4F39
:100D00008081C82AE12CF12CC114D104E104F10442
:100D100049F5ED85FE85E75AFF4F8081ED85FE851B
:100D2000E85AFF4FC080D12CE12CF12C7601DD2454
:100D3000CC24F82AED85FE85EA5AFF4F8081A70171
:100D40009601282BDA01C901ED85FE85E95AFF4F8E
:100D5000C080D12CDC2CCC24E12CF12CC82AD92A3F
:100D6000EA2AFB2AAD85BE855E96CD92DD92ED9294
:100D7000FC929197FD01EE5BFF4FA081ED85FE8512
:100D8000A3838FEF8A0F823008F02AC217AD128337
:100D9000112309F427C2812F90E09C0121503109D1
:100DA00082239323892B09F01FC2EC5BFF4F208025
:100DB000312C322C2224ED85FE85ED5BFF4F8081A6
:100DC000282AED85FE8531862086C1018F709927FE
:100DD000892B09F00BC2EA5BFF4F8080912C982C85
:100DE0008824ED85FE85EB5BFF4F8081882AA12C4E
:100DF000B12C81149104A104B10431F5ED85FE8577
:100E0000EB5AFF4F8081ED85FE85EC5AFF4F8080C5
:100E1000912CA12CB12C540199248824B82AED8559
:100E2000FE85EE5AFF4F8081882AED85FE85ED5ABA
:100E3000FF4F808190E0982F8827AC0160E070E040
:100E4000842A952AA62AB72AED85FE85EF5BFF4FF7
:100E5000E081F0E03E2F22278D859E85805C9F4FAC
:100E6000FC018081F901E82B309709F4C1C1B0E0A1
:100E7000A70196010E94F71869877A878B879C875C
:100E80009F0140E050E02D833E834F835887C1018E
:100E9000929582958F7089279F708927280F391F17
:100EA000411D511DDA01C90129853A854B855C85B3
:100EB000280F391F4A1F5B1F29833A834B835C83AA
:100EC00082169306A406B50608F494C1C501B401C0
:100ED000621B730B840B950B212F30E040E050E038
:100EE0000E94CC18DA01C9012115310541055105CF
:100EF00009F482C1263F6FE036074105510508F02D
:100F000032C2F1E031C2ED85FE85EF59FF4F80819D
:100F1000ED85FE85E05AFF4F408150E060E070E0D3
:100F2000BA0155274427782BED85FE85E25AFF4FFD
:100F30008081482BED85FE85E15AFF4F8081282F67
:100F400030E0922F8827A0E0B0E0482B592B6A2B85
:100F50007B2BAD85BE8596964D935D936D937C936B
:100F60009997880C991CAA1CBB1C880C991CAA1C5C
:100F7000BB1CBFEF8B0EB1E09B1EA11CB11C072E4A
:100F800079E0B694A794979487947A95D1F7702DC9
:100F9000C814D904EA04FB0408F430C187C12985C8
:100FA0003A854B855C85420E531E641E751EAD85C9
:100FB000BE8596964D925D926D927C929997F23095
:100FC00029F4880C991CAA1CBB1C5AC1A3E0B0E0F0
:100FD000A50194010E94F718DC01CB01B695A795F5
:100FE00097958795E1E08E229924AA24BB24880E48
:100FF000991EAA1EBB1E44C1ED85FE85EF5CFD4F08
:10100000808190E0982F8827ED85FE85E05DFD4F7B
:101010002081822B85359A4A09F0ABC0AD85BE850B
:10102000D5962C91D597D4968C9190E0A0E0B0E025
:10103000DC0199278827B22BED85FE8522A9AC011A
:10104000BD01422B23A930E0922F8827A0E0B0E019
:10105000842B952BA62BB72B82359245A146B14404
:1010600009F089C0ED85FE85E75EFD4F2081ED85A5
:10107000FE85E85EFD4F808190E0A0E0B0E0DC01FD
:1010800099278827B22BED85FE85EA5EFD4F2081EA
:10109000AC01BD01422BED85FE85E95EFD4F20814F
:1010A00030E0922F8827A0E0B0E0842B952BA62B70
:1010B000B72B82379247A144B14609F05EC0ED8557
:1010C000FE85EF5DFD4F2081ED85FE85E05EFD4FE5
:1010D000808190E0A0E0B0E0DC0199278827B22B66
:1010E000ED85FE85E25EFD4F2081AC01BD01422B06
:1010F000ED85FE85E15EFD4F208130E0922F88274F
:10110000A0E0B0E0842B952BA62BB72BED85FE85B8
:1011100082879387A487B587E35EFD4F2081ED85A5
:10112000FE85E45EFD4F808190E0A0E0B0E0DC0150
:1011300099278827B22BED85FE85E65EFD4F20813D
:10114000AC01BD01422BED85FE85E55EFD4F2081A2
:1011500030E0922F8827A0E0B0E0842B952BA62BBF
:10116000B72BED85FE8586879787A08BB18BF3E043
:1011700005C0F3E003C0F3E001C0F3E0AD85BE8538
:10118000FC9380912001909121010196909321017F
:101190008093200117969C938E931697FD0116A6B7
:1011A00017A610AA11AA148256961D921D921D927E
:1011B0001C92599780E0DFC08BE0DDC08CE0DBC083
:1011C00080E0D9C080E0D7C083E0D5C08AE0D3C03A
:1011D0008DE0D1C081E0CFC08DE0CDC08DE0CBC02F
:1011E0008DE0C9C08DE0C7C08DE0C5C08DE0C3C033
:1011F0008DE0C1C08DE0BFC08DE0BDC08DE0BBC043
:101200008DE0B9C08DE0B7C08DE0B5C049015A018D
:10121000B2E08B0E911CA11CB11CED85FE85828E67
:10122000938EA48EB58E89819A81AB81BC81840D09
:10123000951DA61DB71D82A793A7A4A7B5A78D814D
:101240009E81AF81B885840D951DA61DB71D82A313
:1012500093A3A4A3B5A3232899F655CE4FEF5FEF30
:10126000BA01AD85BE851E964D935D936D937C93BB
:1012700051971A961D921D921D921C921D977ECF1A
:10128000BFEF8B0EB1E09B1EA11CB11C072E79E0B5
:10129000B694A794979487947A95D1F7702DC81433
:1012A000D904EA04FB0408F4ADCFD8CF8FEF9FEF49
:1012B000DC01ED85FE8586879787A08BB18BDF01EA
:1012C00012861386148615861582ED59FF4F80818C
:1012D00090E0982F882731972081822BA3019201DB
:1012E000280F391F411D511DFD01228B338B448B6B
:1012F000558B01E0BD016E5C7F4F8181A6D88823AC
:1013000009F47ACEF3E03ACF49015A0162E0860E41
:10131000911CA11CB11CAD85BE855A968D929D92E3
:10132000AD92BC925D9749815A816B817C81440D5D
:10133000551D661D771D9A964D935D936D937C9315
:101340009D972D813E814F815885420E531E641E0C
:10135000751E92964D925D926D927C929597232880
:1013600009F452CF1CCEF2E0863F9F4FA105B10594
:1013700008F04CCFC9CF2E960FB6F894DEBF0FBE43
:10138000CDBFDF91CF911F910F91FF90EF90DF9034
:10139000CF90BF90AF909F908F907F906F905F9015
:1013A0004F903F902F9008950F93CF93DF93EC01D0
:1013B00040E050E0BA01DFDA982F811158C08881EF
:1013C000833009F04BC08D81882309F447C01EA6E5
:1013D0001FA618AA19AABE016E5C7F4FFB01CE01A1
:1013E0008E5C9D4F1192E817F907E1F785E5FE0144
:1013F000E05DFD4F80838AEA3196808382E58AAB87
:101400008BAB81E68CAB91E49DAB22E77B9720838D
:101410003196208331969083319680833E852F8547
:1014200098898989319630833196208331969083CB
:10143000319680833A852B859C858D8531963083C6
:101440003196208331969083319680832A893B8917
:101450004C895D8901E0898145D81D8240E050E0DA
:1014600060E08981A4D891E0811101C090E0892FCA
:10147000DF91CF910F9108950F931F93FC019A0173
:10148000AB012250310941095109828D938DA48D00
:10149000B58D0297A109B109281739074A075B07DB
:1014A00068F4A281B0E00E94F71802A513A524A554
:1014B00035A5600F711F821F931F03C060E070E0AD
:1014C000CB011F910F910895AF92BF92CF92DF92FF
:1014D000EF92FF921F93CF93DF9342305105610546
:1014E000710508F4C6C0FC01C28CD38CE48CF58C69
:1014F0004C155D056E057F0508F0C0C06A017B01D3
:10150000EC018081823009F44AC0833009F46DC057
:10151000813009F0B8C05A01B694A794A40EB51E44
:10152000C501892F9927869542A153A164A175A170
:10153000480F591F611D711DCF011DDA8111A7C010
:10154000F501F170EC0FFD1F12A9FFEFAF1ABF0AF2
:10155000C501892F992786954AA15BA16CA17DA120
:10156000480F591F611D711DCE0105DA811193C00D
:1015700081E0B822CA0DDB1D8AA9612F70E0782BAB
:10158000C0FE09C0729562956F7067277F706727EC
:1015900080E090E08BC07F7080E090E087C0452FB6
:1015A000562F672F772782A193A1A4A1B5A1480F39
:1015B000591F6A1F7B1FCF01DED9811170C0CC0C6F
:1015C000DD1CEE1CFF1CE894C0F8E1E0DE22EE24F6
:1015D000FF24FE01EC0DFD1D63A970E0762F662748
:1015E00082A9682B80E090E061C082A193A1A4A1B0
:1015F000B5A1689416F87695679557954795169412
:10160000D1F7480F591F6A1F7B1FCF01B4D9811131
:101610004AC0CC0CDD1CEE1CFF1CCC0CDD1CEE1CEF
:10162000FF1CFCEFCF22F1E0DF22EE24FF24F601C5
:10163000F296EC0FFD1F23816281862F90E0A0E0DF
:10164000B0E0DC0199278827AC01BD01722B8181B4
:1016500090E0982F8827A0E0B0E0842B952BA62B54
:10166000B72BCC0DDD1D2AA9822BBC01CD019F70AB
:101670001DC061E070E080E090E018C061E070E0C3
:1016800080E090E013C06FEF7FEFCB010FC06FEFF2
:101690007FEFCB010BC06FEF7FEFCB0107C06FEF88
:1016A0007FEFCB0103C06FEF7FEFCB01DF91CF91D5
:1016B0001F91FF90EF90DF90CF90BF90AF90089573
:1016C000EF92FF920F931F93CF93DF93EC018B0167
:1016D0007D836C834E815F816885798541305105BA
:1016E0006105710509F490C0E881F981828D938DBF
:1016F000A48DB58D481759076A077B0708F086C087
:10170000411551056105710551F58081833049F41A
:1017100046A157A160A571A5411551056105710547
:10172000F1F41A861B861C861D8680859185081714
:10173000190708F06DC086A197A1A0A5B1A59801D1
:10174000329522952F7023273F702327820F931FF6
:10175000A11DB11D8E879F87A88BB98B42C0E280E7
:1017600080E1E89E700111240E151F0510F188819B
:101770009981AADEAB01BC014F3F8FEF5807680784
:10178000780709F447C0423051056105710508F436
:1017900043C0E881F981828D938DA48DB58D481762
:1017A00059076A077B07D0F50E191F090E151F058B
:1017B000F0F64A875B876C877D87888199815CDE3C
:1017C0009801329522952F7023273F702327DC0143
:1017D000CB01820F931FA11DB11D8E879F87A88B00
:1017E000B98B88819981C2960F701127000F111F44
:1017F00002951295107F1027007F1027080F191FE0
:101800001B8B0A8B80E00BC082E009C082E007C01E
:1018100082E005C081E003C082E001C082E0DF9188
:10182000CF911F910F91FF90EF9008957F928F922B
:101830009F92AF92BF92CF92DF92EF92FF920F935F
:101840001F93CF93DF93423051056105710508F472
:10185000E3C0FC01C28CD38CE48CF58C4C155D0587
:101860006E057F0508F0DCC0680179014A015B0163
:10187000EC018081823009F45FC0833009F480C0BC
:10188000813009F0BFC08A0116950795040F151F16
:10189000C801892F9927869542A153A164A175A1FA
:1018A000480F591F611D711DCF0165D8782E811118
:1018B000B0C0C801917080FE21C0FE01E80FF91F81
:1018C00082A9282F2F7030E1C39EC0011124822BE2
:1018D00082AB0F5F1F4F81E08C83C801892F99274E
:1018E00086954AA15BA16CA17DA1480F591F611D7E
:1018F000711DCE0140D8811189C096C0FE01E80F4C
:10190000F91FC2AA0F5F1F4F81E08C83C801892F86
:10191000992786954AA15BA16CA17DA1480F591F0B
:10192000611D711DCE0127D8811172C088C0FE01D2
:10193000E80FF91FC2AA6DC0452F562F672F7727D2
:1019400082A193A1A4A1B5A1480F591F6A1F7B1FB3
:10195000CF0111D8782E81115CC0B501A401440FCC
:10196000551F661F771F4E7F517066277727FE0130
:10197000E40FF51FC2AAFE01E40FF51FD3AA49C068
:1019800082A193A1A4A1B5A1689416F87695679554
:10199000579547951694D1F7480F591F6A1F7B1F1B
:1019A000CF010E94BB04782E811133C0B501A40180
:1019B000440F551F661F771F440F551F661F771F63
:1019C0004C7F517066277727FA01F296EC0FFD1FC6
:1019D0008381028110E020E030E098011127002788
:1019E000382BDE01A40FB51F002711272227307FD7
:1019F000C02AD12AE22AF32AD296CC92D182E2825C
:101A0000F38207C06894772471F803C0782E01C070
:101A1000782E81E08C831FC06894772471F81BC0F6
:101A20006894772471F817C0C8019170689413F80E
:101A3000F694E794D794C7941694D1F778CFC80159
:101A40009170FE01E80FF91F32A9307F2D2D2F7004
:101A5000C32EC22A6CCF872DDF91CF911F910F919A
:101A6000FF90EF90DF90CF90BF90AF909F908F90BE
:101A70007F9008954F925F926F927F928F929F9284
:101A8000AF92BF92CF92DF92EF92FF920F931F938C
:101A9000CF93DF93EC012A013B014115510561050C
:101AA0007105B9F48A849B84AC84BD84811491044B
:101AB000A104B10421F18A8D9B8DAC8DBD8D88165A
:101AC0009906AA06BB06F8F0812C912C5401839448
:101AD0001AC0FADC6B017C01623071058105910549
:101AE00008F483C08A8D9B8DAC8DBD8DC816D90638
:101AF000EA06FB0608F47EC05301420104C0812CB3
:101B0000912C54018394750164018FEFC81AD80A8F
:101B1000E80AF80A8A8D9B8DAC8DBD8DC816D90652
:101B2000EA06FB0660F022E082169104A104B104EB
:101B300008F465C0C12CD12C76016894C1F8B701B6
:101B4000A601CE01C1DC611571058105910599F0F1
:101B50006F3F2FEF72078207920709F455C061307B
:101B600071058105910509F454C0C814D904EA042B
:101B7000FB0459F653C00FEF1FEF2FEF3FE0B70103
:101B8000A601CE0153DE811129C041145104610424
:101B9000710441F097018601B301A201CE0146DE36
:101BA00081111CC0CA86DB86EC86FD868E859F85EA
:101BB000A889B9898F3F2FEF9207A207B20799F141
:101BC0000197A109B1098E879F87A88BB98B81E006
:101BD0008D836C2D7D2D8E2D9F2D2EC0813041F15A
:101BE00061E070E080E090E027C061E070E080E0BC
:101BF00090E022C06C2D7D2D8E2D9F2D1DC060E0AC
:101C000070E080E090E018C06FEF7FEF8FEF9FEF04
:101C100013C061E070E080E090E00EC060E070E032
:101C200080E090E009C06C2D7D2D8E2D9F2D04C08D
:101C30006FEF7FEF8FEF9FEFDF91CF911F910F91AC
:101C4000FF90EF90DF90CF90BF90AF909F908F90DC
:101C50007F906F905F904F9008958F929F92AF9278
:101C6000BF92CF92DF92EF92FF920F931F93CF9389
:101C7000DF93DC011496CD91DC911597219609F440
:101C8000FEC01E968D909D90AD90BC905197811492
:101C90009104A104B10409F4F4C07B018C016E012C
:101CA000BFE0CB22DD24C114D10409F0D2C0EFEF94
:101CB0008E1A9E0AAE0ABE0ADC011E968D929D9275
:101CC000AD92BC9251971A964D915D916D917C9118
:101CD0001D97411551056105710549F4ED91FC9180
:101CE00080859185C817D90708F0CDC0B2C0DC0146
:101CF000ED91FC91228130E021503109CE01929585
:101D000082958F7089279F70892728233923232B59
:101D100009F09FC0CF01D8DB4B015C016230710537
:101D20008105910508F4B1C06F3F7F4F8F4F9F4FE2
:101D300009F4ADC0D801ED91FC91828D938DA48DF5
:101D4000B58D88169906AA06BB0608F471C0EF285F
:101D500009F49FC0D8011A964D915D916D917C91C7
:101D60001D97CF0187DE4B015C016115710581056F
:101D7000910509F490C0613071058105910509F460
:101D80008CC06F3F7F4F8F4F9F4F09F488C040E05A
:101D900050E0BA01D8018D919C910E94BB04811141
:101DA00080C0F80180819181FC01F2968E5C9D4F8C
:101DB0001192E817F907E1F7D801ED90FC90B50111
:101DC000A401C70159DBF70166A777A780AB91ABE8
:101DD000F12CEE24E3941AC0E48240E050E0BA0112
:101DE000D8018D919C910E94BB0481115CC0D801E7
:101DF000ED91FC9186A597A5A0A9B1A90196A11D79
:101E0000B11D86A797A7A0ABB1ABF394D801ED9114
:101E1000FC918281F81600F386A597A5A0A9B1A927
:101E20008F199109A109B10986A797A7A0ABB1ABFA
:101E3000F80182869386A486B586B501A4018081C7
:101E400091811ADBD8011E966D937D938D939C939F
:101E50005197F801D583C48380819181C296CC0CBF
:101E6000DD1CCC0CDD1CCC0CDD1CCC0CDD1CCC0C2E
:101E7000DD1CC80ED91ED38AC28A80E015C084E05A
:101E800013C084E011C084E00FC082E00DC081E087
:101E90000BC084E009C087E007C082E005C081E094
:101EA00003C081E001C081E0DF91CF911F910F91CC
:101EB000FF90EF90DF90CF90BF90AF909F908F906A
:101EC00008952F923F924F925F926F927F928F92DE
:101ED0009F92AF92BF92CF92DF92EF92FF920F93B9
:101EE0001F93CF93DF9300D000D000D0CDB7DEB7E3
:101EF0008C011B01DB018C918F3211F08C3549F480
:101F0000BFEF2B1A3B0AF801168217821086118642
:101F10000CC0D801ED91FC9186899789A08DB18D77
:101F2000F80186839783A087B187D1018C91803295
:101F300040F460E070E0C801C3DBF801138A128A44
:101F400095C16894FF24F5F86894BB24B3F8812CFC
:101F50000F2EF5E04F2EF02D712C0F2EFEE2EF2EFE
:101F6000F02D612C0F2EF3E0AF2EF02D512CD1016E
:101F7000FD018D918F32E1F38C35D1F3AF01F80182
:101F8000A489B589CD010B966A01AD01FA01F192E0
:101F9000AF018E179F07D1F7A601F60180818E321F
:101FA000F9F4EC9281818E3251F41196EC921197F2
:101FB00082818E3209F4B5C02A2C352C04C0689475
:101FC000222421F8362C8F3209F408C18C3509F40B
:101FD00005C1813208F4FEC022C11B968C9321C139
:101FE00080E090E020E030E06B2D782D912CDE82B7
:101FF000CD826D011A830983192D1901FFEF2F1A64
:102000003F0AAD81BE81A20FB31FBC91B13208F46B
:10201000F2C0BF3209F4F9C0BC3509F4F6C0BE32D3
:1020200009F41FC18617970708F0F9C008C0110FFF
:10203000110F910188E090E06BE0772DDECFBB239C
:102040000CF413604FE74B0F4F3120F040E24B0F81
:102050004D3128F52E5F3F4F4D815E81240E351E98
:10206000F101408150EC540F5F3328F050E8540FD9
:102070005D3708F0D4C01B01F1E02F1A310882153A
:10208000930508F0CCC01601280E391EF101B0836B
:10209000DC011196AC0DBD1D02964C93AECF4B2FBB
:1020A00050E042325105E9F122E031E0ED81FE815C
:1020B0000B2F3C832B83AB81BC812D91BC83AB83E5
:1020C000222309F48FC030E042175307A1F729C03B
:1020D000126006C02FE92B0F2A3110F41160B052A4
:1020E000A601480F591FFA01B0830196910185CFCF
:1020F000892B09F494C08C91853E09F44C92683088
:10210000710511F4990C990C892D8370813009F4B3
:102110002061892D8C70843009F428601B962C93E3
:1021200080C086E0A3C0D8011E964D915D916D914F
:102130007C9151978D919C910E94BB04811180C02C
:10214000F8010288F389E02DFA83E98390819923CD
:1021500009F480C0338533FD12C0D80154964D91E7
:102160005C915597DA01BF01655F7F4F04C0E617A8
:10217000F70709F45EC021919D912917C1F360E032
:1021800070E0C8016ADD882371F25AC095FF0BC068
:10219000F8011682178210861186138A128A92FF1E
:1021A000E6CE80E063C092FD11C085E05FC074FFA1
:1021B0000FC069817A81D8018D919C910E94990408
:1021C000F8016683778380879187D1CE84E04EC003
:1021D00085E04CC0240E351E84E2FFCE240E351E51
:1021E0008F2DFBCEFE83ED83B02F2FEB200F2A31F6
:1021F00008F46ECF6FCF4D815E81D601912E09819B
:102200001A81240E351E24E073CF4D815E81D601E4
:10221000912E09811A81240E351E20E069CF86E0B7
:1022200025C060E070E0C8014BDA882309F47BCF59
:1022300007C0732FDA011B969C9192FFB8CF16C08E
:10224000D8015496ED91FC9155979385843009F40B
:102250009DCF0CC0D8015496ED91FC915597938574
:1022600095CF6830710509F4E2CED9CF26960FB626
:10227000F894DEBF0FBECDBFDF91CF911F910F91BC
:10228000FF90EF90DF90CF90BF90AF909F908F9096
:102290007F906F905F904F903F902F9008950F9395
:1022A0001F93CF938C0160E070E00ADAC82F811190
:1022B00046C0D8011E964D915D916D917C915197CC
:1022C0008D919C910E94BB04C82F811138C0D80108
:1022D0005296ED91FC9153978081853E21F18823A0
:1022E00011F161E070E0C801B8DCC82F882309F360
:1022F00026C0F80182899389FC019C01205E3F4F32
:102300001192E217F307E1F7D80154966D917C9191
:1023100055974BE050E00E948B04D801ED91FC9161
:1023200081E084830CC0F8014685578560897189F6
:10233000808191810E94BB04C82F8823D1F28C2F09
:10234000CF911F910F9108957F928F929F92AF929C
:10235000BF92CF92DF92EF92FF920F931F93CF9392
:10236000DF93EC016A017B01423051056105710583
:1023700008F44AC08A8D9B8DAC8DBD8D48175907D6
:102380006A077B0708F042C077247394B701A6015F
:10239000CE019AD84B015C01672B682B692BC1F1E8
:1023A00091E089169104A104B104A1F18FEF881680
:1023B0009806A806B80681F100E010E09801B70180
:1023C000A601CE0133DA811128C04E855F85688968
:1023D00079894F3F9FEF59076907790749F04F5FA8
:1023E0005F4F6F4F7F4F4E875F87688B798B7D8202
:1023F000750164014A8D5B8D6C8D7D8D841695060B
:10240000A606B70618F209C082E007C082E005C040
:1024100080E003C082E001C081E0DF91CF911F9195
:102420000F91FF90EF90DF90CF90BF90AF909F9073
:102430008F907F900895811112C0E0912201F09158
:102440002301309709F010826115710511F0FB012D
:102450001082709323016093220180E008958BE045
:1024600008954F925F926F927F92AF92BF92DF92E8
:10247000EF92FF920F931F93CF93DF93CDB7DEB709
:10248000A8970FB6F894DEBF0FBECDBF7CA36BA399
:10249000009709F4DBC0B42E8C01DC011D921C9264
:1024A0004E71BE016F5F7F4FCE0183960E94BE05C5
:1024B0008111F3C0BB2DBF71DB2ECE0147969E8BE1
:1024C0008D8B6BA17CA14697FCDCEB88FC8881118D
:1024D000BFC0E114F10409F0C4C0BEC0843009F0EB
:1024E000CAC0CE010196DBDEED2DE860DE2EEB8862
:1024F000FC88882349F0D1C0D7011B968C9181714B
:1025000009F0C4C0B2FCC4C0D3FE53C0F7011686A4
:102510001786108A118A1386148E158E168E178EC2
:10252000A980BA80B701C5010E9499042B013C0122
:10253000D7015A961C925A975B961C925B975496B9
:102540001C92549755961C9281E0F50184834114A6
:1025500051046104710451F186A597A5A0A9B1A900
:102560008DA39EA3AFA3B8A7B301A201C501ECDE62
:10257000811193C089819A81B301A201415051090F
:1025800061097109FC0142875387648775874DA1F2
:102590005EA16FA178A50E94BB04882339F07DC09D
:1025A000B1FE02C080FD76C0B3FE03C0FD2DF06217
:1025B000DF2EE981FA8186A597A5A0A9B1A9F80126
:1025C000828F938FA48FB58FF78EE68ED8011496E5
:1025D000DC92A980BA80B701C5010E949904F80174
:1025E00066877787808B918BD7015F962C915F9759
:1025F0005E968C9190E0A0E0B0E0DC0199278827FE
:10260000B22BF701248D822B458D50E0542F4427A7
:1026100060E070E0842B952BA62BB72BF801828706
:102620009387A487B5871682178210861186168A2B
:10263000178A108E118EB182A082D50116968D91C7
:102640009C9117979383828380E027C089E025C0FF
:102650004B2D4C7159F042CF4B2D4C7159F486E003
:1026600005C08B2D8C7109F047CF0BC0882309F46E
:10267000ADCF13C086E0BD2DB860DB2EEB88FC88A3
:10268000F5CFF701838584FD07C08ACF87E005C0B9
:1026900088E003C087E001C084E0A8960FB6F894F4
:1026A000DEBF0FBECDBFDF91CF911F910F91FF9085
:1026B000EF90DF90BF90AF907F906F905F904F90C2
:1026C00008952F923F924F925F926F927F928F92D6
:1026D0009F92AF92BF92CF92DF92EF92FF920F93B1
:1026E0001F93CF93DF9300D000D0CDB7DEB79C838C
:1026F0008B834B016A015901D9011D921C920E94E2
:102700009E058111BCC1EB81FC81848188230CF47E
:10271000B3C181FFB3C182859385A485B585AC0122
:10272000BD014C0D5D1D611D711D481759076A07DC
:102730007B0708F484C1C114D10409F480C1B096A8
:10274000FA83E983EB81FC8186819781A085B1853D
:10275000AC01BD01517066277727452B462B472BCF
:1027600009F02CC120813181F90112811150AC0195
:10277000BD01032E39E076956795579547953A95B3
:10278000D1F7302D142309F04FC0892B8A2B8B2BC6
:10279000C9F4AB81BC811E966D917D918D919C9108
:1027A00051976115710581059105E1F440E050E014
:1027B000BA01C9015FD9EB81FC8166877787808B7D
:1027C000918B0AC0AB81BC8152964D915D916D9108
:1027D0007C915597C9014ED9611571058105910507
:1027E00009F42DC1613071058105910539F4EB8142
:1027F000FC8184818068848382E041C16F3FFFEF68
:102800007F078F079F0751F4AB81BC8114968C9191
:102810001497806814968C9381E031C1EB81FC8120
:10282000628B738B848B958BAB81BC8114968C915E
:10283000149786FF1FC056962D913D914D915C9146
:102840005997ED91FC9101E069817A8181810E9423
:102850007202882339F0EB81FC8184818068848353
:1028600081E00DC1AB81BC8114968C9114978F7B54
:1028700014968C93EB81FC812080318042895389AE
:1028800064897589C1010E943C0A61157105810541
:10289000910551F4AB81BC8114968C91149780689A
:1028A00014968C9382E0EBC02B013C01410E511C2D
:1028B000611C711C7601EF2CFF24E694E114F104F5
:1028C00009F449C0F1014281242F30E0C701810F92
:1028D000911D2817390718F47901E11AF1080E2D16
:1028E000A3019201B401D10111968C910E94720250
:1028F000882339F0EB81FC8184818068848381E0C6
:10290000BEC0EB81FC8186899789A08DB18D841929
:102910009509A609B709A70160E070E0841795073B
:10292000A607B707A0F4982F8827990FB401680F5E
:10293000791F40E052E089819A810E948B04AB812B
:10294000BC8114968C9114978F7B14968C93FE2CDB
:10295000EE24FF0C58C0EB81FC8186899789A08DFD
:10296000B18D481659066A067B0601F146815781EA
:102970006085718582859385A485B585481759073B
:102980006A077B0798F401E0A301920169817A81CB
:10299000D10111968C910E942502882339F0EB8198
:1029A000FC8184818068848381E069C0AB81BC81C3
:1029B00056964D925D926D927C925997EB81FC8177
:1029C00086819781A085B1859C01317040E052E0FD
:1029D0007A01E21AF30ACE14DF0408F4760191704A
:1029E000AA27BB278096A701B4012B813C81820FC7
:1029F000931F0E948B04AB81BC8114968C91149719
:102A0000806414968C938E0C9F1CEB81FC818681D4
:102A10009781A085B1858E0D9F1DA11DB11D868357
:102A20009783A087B187D5018D919C9111978E0DC9
:102A30009F1D8D939C93CE18DF0809F083CEEB8108
:102A4000FC8186819781A085B18542855385648507
:102A50007585481759076A077B0720F48287938793
:102A6000A487B587AB81BC8114968C911497806242
:102A700014968C9380E003C082E001C087E00F9041
:102A80000F900F900F90DF91CF911F910F91FF90BA
:102A9000EF90DF90CF90BF90AF909F908F907F90FE
:102AA0006F905F904F903F902F9008950F93CF932A
:102AB000DF93EC010E949E0581114EC08C8185FF41
:102AC00048C086FF12C02E893F89488D598DE88104
:102AD000F98101E0BE01605E7F4F81810E94720238
:102AE000811139C08C818F7B8C834A8D5B8D6C8D7D
:102AF0007D8D888199810E94BB0481112DC0EE8D4E
:102B0000FF8D8385806283878A85848F8B85858FFF
:102B10008C85868F8D85878F8E859F85A889B989BD
:102B2000828F938FCD01AA27BB27848B958B168A22
:102B3000178A108E118E128A138A8C818F7D8C8356
:102B4000E881F98181E08483888199810E94D40998
:102B500003C080E001C081E0DF91CF910F91089523
:102B6000CF93DF93EC01A2DF811102C0198218829A
:102B7000DF91CF9108954F925F926F927F928F92E3
:102B80009F92AF92BF92CF92DF92EF92FF920F93FC
:102B90001F93CF93DF9300D000D000D0CDB7DEB726
:102BA0009E838D836A017B010E949E058111D8C19D
:102BB000AD81BE8114968C91149788230CF4CBC1FF
:102BC0001A964D915D916D917C911D974C155D0507
:102BD0006E057F0520F481FD02C06A017B01ED8155
:102BE000FE81468057806084718416821782108629
:102BF0001186C114D104E104F10409F4AEC10081CD
:102C00001181F8018280912CA12CB12C072E79E042
:102C1000880C991CAA1CBB1C7A95D1F7702D411405
:102C200051046104710409F43EC0F1E04F1A5108E7
:102C300061087108C701B6016150710981099109E4
:102C4000A5019401A9D229833A834B835C83C301F4
:102C5000B201A5019401A0D289819A81AB81BC8186
:102C600082179307A407B507F0F088279927DC019E
:102C700088199909AA09BB09482259226A227B228C
:102C8000AD81BE8116964D925D926D927C921997A0
:102C9000C418D508E608F70852964D915D916D91DC
:102CA0007C9155973DC0ED81FE81468557856089B1
:102CB0007189411551056105710561F540E050E0EC
:102CC000BA01C8010E943A0DAB01BC014130510567
:102CD0006105710551F4AD81BE8114968C911497F4
:102CE000806814968C9382E03BC14F3FBFEF5B0737
:102CF0006B077B0739F4ED81FE81848180688483D2
:102D000081E02EC1AD81BE811E964D935D936D9382
:102D10007C935197ED81FE81428B538B648B758B35
:102D2000411551056105710509F4A1C08C149D047C
:102D3000AE04BF0408F063C0AD81BE8114968C91CF
:102D4000149781FF0CC08D919C910E943A0DAB01AC
:102D5000BC01411551056105710549F44EC0AD81B5
:102D6000BE818D919C910E94640AAB01BC014F3FD2
:102D7000BFEF5B076B077B0739F4ED81FE81848130
:102D80008068848381E0ECC04230510561057105A3
:102D900068F0AD81BE81ED91FC91828D938DA48D03
:102DA000B58D481759076A077B0738F0ED81FE811A
:102DB00084818068848382E0D3C0AD81BE815296D5
:102DC0004D935D936D937C935597FD01868197811B
:102DD000A085B185880D991DAA1DBB1D868397838B
:102DE000A087B187C818D908EA08FB088C149D048D
:102DF000AE04BF0408F4A0CF02C075016401ED81E8
:102E0000FE8186819781A085B1858C0D9D1DAE1DAB
:102E1000BF1D86839783A087B187D701C6019170B4
:102E2000AA27BB27892B8A2B8B2B29F180819181A3
:102E30000E943C0A611571058105910551F4AD812F
:102E4000BE8114968C911497806814968C9382E0BE
:102E500087C00B2EB9E0F694E794D794C794BA953F
:102E6000D1F7B02DC60ED71EE81EF91E07C0C12C23
:102E7000D12C760103C0C12CD12C7601ED81FE81CD
:102E800086819781A085B1859170AA27BB27892B60
:102E90008A2B8B2B09F447C026893789408D518DA9
:102EA000C216D306E406F506F1F1848186FF1CC044
:102EB0000190F081E02D01E06D817E81605E7F4FA9
:102EC00081810E947202882351F0AD81BE811496E7
:102ED0008C911497806814968C9381E041C0ED81A9
:102EE000FE8184818F7B8483AD81BE81ED91FC91D5
:102EF000119701E0A7019601BD01605E7F4F8181BE
:102F00000E942502882339F0ED81FE81848180684A
:102F1000848381E025C0AD81BE815696CD92DD923D
:102F2000ED92FC925997ED81FE8186819781A08573
:102F3000B1854285538564857585481759076A07A9
:102F40007B0768F482879387A487B5878481806232
:102F5000848380E005C082E003C080E001C080E09F
:102F600026960FB6F894DEBF0FBECDBFDF91CF918E
:102F70001F910F91FF90EF90DF90CF90BF90AF9097
:102F80009F908F907F906F905F904F900895EF92F9
:102F9000FF920F931F93CF93DF93CDB7DEB72E979A
:102FA0000FB6F894DEBF0FBECDBF7E876D8700974A
:102FB000F1F18C0140E0BC01CE010D960E94BE05EE
:102FC000811131C0D801ED90FC901197CE0101968E
:102FD00055969C938E9354976D857E85C8010E946B
:102FE000610F811114C0D8015296ED91FC91539755
:102FF000309709F1838584FF0FC0BF01C7010E948C
:103000009904F801668377838087918714C08430A0
:1030100029F0882371F003C085E001C085E0D80164
:103020001D921C9216C0F8011182108212C089E014
:1030300010C080E00EC0D70116968D919C91179715
:10304000F8019383828360E070E0C8010E94600B06
:10305000DECF2E960FB6F894DEBF0FBECDBFDF9148
:10306000CF911F910F91FF90EF900895CF93DF9331
:1030700000D000D000D0CDB7DEB784B1836084B972
:10308000289A83E390E065D034D02FEF89E698E169
:10309000215080409040E1F700C000002898299A14
:1030A00082E46AD0EFEFF4E32CE0E150F0402040FE
:1030B000E1F700C000002998289ACE0101967C0112
:1030C00000E010E061D0F70181937F010F5F1F4F97
:1030D0008B32C1F7B801CE01019610D0FFEF24E387
:1030E0008CE0F15020408040E1F700C000002898BB
:1030F000D6CF6CE573E080E09EC908950F931F93CF
:10310000CF93DF93EC018B0160E171E086E493E003
:103110003EDF42E162E171E086E291E0A2D94091B6
:10312000300150913101609132017091330186E29A
:1031300091E021DD24E231E0A801BE0186E291E0C8
:10314000C0DA86E291E00CDDDF91CF911F910F9103
:1031500008959093C5008093C40038E13093C10076
:1031600026E02093C2009093CD008093CC00309352
:10317000C9002093CA000895E8ECF0E0908195FF23
:10318000FDCF8093CE000895E8ECF0E080818823A5
:10319000ECF78091CE000895A1E21A2EAA1BBB1B6A
:1031A000FD010DC0AA1FBB1FEE1FFF1FA217B30713
:1031B000E407F50720F0A21BB30BE40BF50B661F29
:1031C000771F881F991F1A9469F7609570958095ED
:1031D00090959B01AC01BD01CF010895EE0FFF1F3B
:1031E0000024001C0BBE0790F691E02D099409D035
:1031F000A59F900DB49F900DA49F800D911D11244B
:103200000895A29FB001B39FC001A39F700D811DBF
:103210001124911DB29F700D811D1124911D0895DF
:04322000F894FFCF50
:1032240001222A2B2C3A3B3C3D3E3F5B5D7C7F00D8
:0C3234002F002F646174612E7478740008
:00000001FF
